:400000000080002011000000510C0000510C000008B5044B1A6803F53F5302331A6000F01FFE00BFFA46004010B5054C237833B9044B13B10448AFF300800123237010BDA0
:400040006881FF1F0000000014320000084B10B51BB108490848AFF300800848036803B910BD074B002BFBD0BDE81040184700BF000000006C81FF1F14320000C880FF1F36
:400080000000000010B562B60024784B1C70784B1C70784B1C70784B1C70784B1C70784B1C70784B1C70784B1C70784B1C7041F28832774B1A80774B1C7000F06DFA214623
:4000C000022001F0E7FD00F0BDFF734802F048F902F040F9714802F06BF902F063F9704802F09AF902F092F900F0A2F92146032000F012FF00F030FF00F0C8FF68B15C4B81
:400100001B7853B90122594B1A7000F0A9FF614A13786449C85401331370544B1B78012B0FD100F0B3FF60B95A4B1B78013B5D4AD35C7A2B05D100224C4B1A7001224C4BC6
:400140001A704B4B1B78012BD4D1564B1B78413B052B7AD8DFE803F0030D2847646F524C524B07CB20606160A260204600F0D2FF6BE04C4800F0F4FA0122424B1A70424BC2
:400180001B78002B61D0414B1B78002B5DD03A4B1A70454A464B03CB106051601B781372104600F0B7FF50E03E4A5178937843EA0123404A13800122334B1A70314B1B7873
:4001C000002B42D0314B1B78002B3ED02A4B1A70354A374B03CB106051601B781372104600F098FF31E02F4A5178937843EA0123314A13800122254B1A70224B1B7823B3E6
:40020000214B1B780BB31C4B1A70274A284B03CB106051601B781372104600F07BFF14E0154B1B78012B10D100F0D8FA184B188000F06EFA09E0114B1B7813B9104B1B78CA
:400240001BB100F0B1FA00F0E3FA0023074A1370074A137004E00021124AD1540133DBB2272BF8D900220B4B1A7043E7C481FF1FBEB8FF1FE0B8FF1FC581FF1FE2B8FF1F20
:40028000DCB8FF1FD8B8FF1FD6B8FF1FD7B8FF1FDAB8FF1FB8B8FF1FBD0200002D0300006D03000090B8FF1FC4B8FF1F1832000024320000BCB8FF1FD4B8FF1F08B5144BF0
:4002C000188800F0F7F9134A138801339BB21380114A1288934212D302F064F802F03AF800F04CF900220B4B1A800B4B19880B4800F064F90A4B188001220A4B1A70054B34
:400300001A88094B33F81220014B1A8008BD00BFC881FF1FDEB8FF1FDAB8FF1FF4DFFF1F8481FF1FE2B8FF1FE4B8FF1F38B50B4C258801F087FC0A4B23F81500248833F8EE
:400340001400404202F05CFD064B196802F0ACFD02F0FAFE044B23F8140038BDDEB8FF1FCC81FF1FC0B8FF1FF4DFFF1F38B5144B188800F09FF9134C258801F063FC02F06A
:400380003FFD114B196802F08FFD02F0DDFE0F4B23F81500238801339BB22380B3F5FA6F05D302F033F800F0E9F800222280054B1A88074B33F81220014B1A8038BD00BFAA
:4003C000C881FF1FDEB8FF1FC0B8FF1F44070020F0A8FF1F08B5002001F0EEFC01F058F801F020F901F0C2FC08BD00BF38B505460C46C0B200F072FF642000F06DFD01F0C9
:4004000021FC034B23F81450053423F8140038BDDCA8FF1F08B5012001F0CEFC01F024F801F0EAF801F07CFC00F03CFF08BD00BF70B500F085FF002000F050FFFFF7CAFF8B
:40044000642000F049FD304B1A78304B33F8124001F0F0FB02210020FFF7C8FF204602F04DF902460B460020294902F0D7FA02F0BDFB02F069FE0446FA2802DD00EBD074D8
:400480006410042000F06EFFA5B200212846FFF7ADFF04EBD474C4F34F0401212046FFF7A5FF002000F05EFF03212046FFF79EFF04212846FFF79AFF002000F00FFFFFF79C
:4004C000A9FF144B1888144A10801A8913490A805D8913490D805C8A124B1C80104402F08FFC4FF0785102F0DFFC0646281B02F087FC0146304602F08BFD0B4B186001225E
:400500000A4B1A7070BD00BFB9B8FF1F303200000040BF40DCA8FF1FEA160020E8160020E6160020EC160020C0B8FF1FE0B8FF1F08B501F0F9FA00F089FF01F015F800F04F
:4005400077FE01F089FE08BD08B501F00FFC00F09FFF01F067F801F095F8012000F0BCFC054B188800F0A6F80A2000F0B5FC00F081FE01F0C3FE08BDC881FF1F08B501F0A7
:40058000CFFB01F065F800F06FFF01F035F800F05DFE01F09DFE08BD08B5FFF7C9FFFFF7EDFF01F0F9FB01F013FC00F069F8012001F002FC002001F01BFC08BD70B4012333
:4005C0000026354614E030F9134003F10042013A30F9122094420ADB5A1C30F91220944205DBA54203DC054A32F81360254601334A1E9342E7DB30B270BC7047E4B8FF1F0D
:4006000070B54FF4804341F6FF720121084601F0FBFB0C4E307000F021FC02460A4C254605F8040B0123102100F032FC45F68332A9B2207800F040FC2178307800F0E0FBE6
:4006400070BD00BF8E81FF1FCC80FF1F08B501F045FC034B1B78FF2B01D1FFF7D1FF08BDCC80FF1F08B50121044B187800F06EFB01F080FC01F0E6FB08BD00BF8E81FF1F2F
:4006800008B5054B5B7823B9FFF7E0FF0122024B5A70FFF7E7FF08BD8E81FF1F08B501F077FC034B187800F06DFB01F0D9FB08BD8E81FF1F38B500F00F05C0F30714B0F52F
:4006C0007F6F02D9002000F005FCFF2C08D0002318E00E4A1A44FF2111710133DBB200E000230F2BF5D938BDC5F11002934203DA064A1A44147103E0044A1A44611C1171AE
:400700000133DBB20F2BEFD938BD00BFCC80FF1F10B501F013FEE0B901F06CFE08B101F075FE00220B4B1A800B4B1B880B4C2380FFF70AFF2088FFF7BDFF012000F0CCFBCA
:4007400001F078FA142000F0C7FB01F0F1FD01F023FE10BDDEB8FF1FE4B8FF1FC881FF1F38B5054601F0CAFD6C78AB7843EA04244FF47A7393FBF4F440F65F1303FB04F30E
:40078000084880FB0320DB17C3EBA00080B201F035FD6008013080B201F036FD01F098FD38BD00BF6766666608B501F0A7FD40F65F1001F023FD064B1988002000F074F87E
:4007C000044B1A88044B1A8001F082FD08BD00BF8481FF1FF0A8FF1FC881FF1F10B501F08DFD074B1988074B188800F049F80446054B1A88054B1A8001F06AFD204610BDE4
:40080000D4B8FF1FBCB8FF1FE4B8FF1FC881FF1F08B5FFF799FE01F0EDFD30B901F08EFD18B101F097FD01F0BDFD0020054B1880FFF740FF01F0FEF90F2000F04DFB01F05B
:40084000D3FD08BDDEB8FF1F0346884207D310E00A4820F81230013292B201339BB28B42F6D908E0054820F81230013292B2013B9BB28B42F6D21046704700BFE4B8FF1F68
:4008800038B504460D460022FFF7DEFF421E92B221462846FFF7D8FF024B23F81040013080B238BDE4B8FF1F002303E0074A22F813000133632BF9DD03E0044A22F813101F
:4008C0000133B3F5FA6FF8DB704700BFF0A8FF1FFEE700BFF0B40022174611E050F82760F3B226F0FF0608E001EB420511F812406D78A5550132013BDBB2002BF4D10137F4
:400900001E2FEBD9F0BC7047144B1B78DBB203F00701134A11701B09013213701022114B1A70202310490B7001F6E3010A700F4A1370402208310A7068310B7008310B70D4
:4009400068310A700A4A13704FF48172094B1A804422A3F534731A70704700BFCF0100496E5800400D5100403D510040245A0040045B0040465B004008B50A46002102F0DB
:4009800040FC08BD08B502F031FC08BD38B50024344B1C80502202331A70632202331A801823314A13705F2102321180023213704FF49C71023211800232137004222B4949
:4009C0002B48FFF7DFFF02222A4B1A7008224FF040231A70032103F500731970264B1B78DBB226490B70264B1A8041F25122023B1A8019250CE0234B1B7803F0010343EACD
:400A0000440404F003044FF4F07001F015FD013D0DB1032CEFD115B90320FFF759FF1A4B4FF480721A8007221A70002217490A704820023108701A700222033B1A70042211
:400A40000A331A70124A137843F00F031370013A137843F001031370013A137843F08003137038BD80400040864000402C050048004100400043004008010049A146004090
:400A800022420040254200400440004006400040A2430040012814D810B44000C0B2094B53F820101A18147C0A7822430A700130C0B253F820201844017C13780B431370DC
:400AC00010BC704740320000012816D810B44000C0B20A4B53F820101A18147C0A7822EA04020A700130C0B253F820201844017C137823EA0103137010BC704740320000B9
:400B000020B9034A137843F004031370704700BF0D51004020B9034A137823F004031370704700BF0D51004038B572B6334A137843F00403137000240BE0314863001A19D9
:400B4000510001440A46098B5069FFF715FF0134E4B2062CF1D92B494FF09040FFF7BAFE0A25294B1D7004212848FFF705FF284A137843F0020313701032137843F00203C4
:400B80001370244C237843F040032370A2F58632513A137843F01003137008221E491F48FFF7F0FE2A461E491E48FFF7EBFE08221D491E48FFF7E6FE08221D491D48FFF7BD
:400BC000E1FE08221C491D48FFF7DCFE1C4A137843F0080313701B4D61232B70FFF7D6FE81232B700122184B1A70FFF78DFE0E2221461648FFF7C6FE38BD00BFE8460040AE
:400C0000403200007C000048835800400076004003500140A0430040000500480251004008050048C051004014050048125100401C0500482251004024050048325100401C
:400C4000224300400048004004000840B043004008B502F09FFA03680C2B00D1FEE7FEE708B5104E104D16E029686B68AC68002204E051F8040B43F8040B0432A242F8D1D2
:400C8000E868002203E0002143F8041B04328242F9D11035013E002EE6D102F081FAFFF7F1F9FEE701000000B032000008B5114A114B1A60114A136843F40073136000231E
:400CC0000AE0032B03D80E4A52F8231000E00D490D4A42F8231001332F2BF2D90B4B1A780B4B1A70084A0B4B1A60FFF71DFF00F013F808BD0004FA050CED00E014ED00E060
:400D000000000000510C00000080FF1FBC760040C080FF1F08ED00E00B4A7F2313708021517007E0DA0002F1804202F5F042013BDBB21370002BF5D1DB0003F1804303F5D1
:400D4000F04300221A707047E080FF1F172815D831B103010A495A5C42F020025A5405E0030107495A5C02F0DF025A540001044A835C43F0010383540020704701207047E7
:400D80001070004017280BD80001064BC25C02F0FE02C254C25C02F0DF02C25400207047012070471070004017280BD80001064A835C03F0F103490001F00E0119438154B0
:400DC00000207047012070471070004041F6FF73994201D14FF4005141F6FF739A4201D14FF40052172808D8C00000F1804000F5EC408180C280002070470120704700BF4C
:400E0000172805D8034B03EB0010417200207047012070471070004017281BD810B4C00000F1804404F5EC44D201D2B201F07F01114321709DF804201201D2B203F00F0392
:400E4000134363709DF8083003F00F03A3700020E07001E00120704710BC704710B501F0F3FA0A4B5B78182B0BD9084A1478013B5370E30003F1804303F5F0431B7813700E
:400E800000E0FF2401F0E4FA204610BDE080FF1F10F0800F0CD111F4704F0BD1C00000F1804000F5F04001808270C37000207047012070470120704710F0800F08D1C000B8
:400EC00000F1804000F5F0408180C280002070470120704701BE704710B5044605E0084B186801F0A9FAA4F50044B4F5004FF6D8034B586800FB04F001F09EFA10BD00BFA4
:400F0000E880FF1F08B5034B1B7A00FB03F001F093FA08BDE880FF1F0E4B1A7802F0FC0200F00300104318701A7842F080021A701A7802F07F021A7049011A7801F060019E
:400F400002F09F02114319701A7842F010021A70704700BF834300400122014B1A7070478443004070B504460E46074B1D681F2802D90020FFF7AEFF04F01F04103455F847
:400F8000240045F8246070BD08ED00E038B504460D46072902D90020FFF79CFF1F2C02D90020FFF797FF04F01F0000F1604000F564406D01EDB2057038BD00BF08B572226E
:400FC0000B4B1A70202203F580731A7009490020FFF7C8FF07210020FFF7D8FF0622064B1A70472210331A70022253331A7008BD89640040391100002865004010B501F0EA
:4010000023FA04460D4A137843F02003137002F58072137843F0100313700232137843F0100313700123064A1360A2F5C072136000F0AEF8204601F00BFA10BD99640040AA
:4010400080E200E008B5054B1B7823B9FFF7B6FF0122024B1A70FFF7D1FF08BD9081FF1F084B1B78DBB213F0200F06D0064A1078C0B213F01E0F02D17047002070470020DD
:40108000704700BF6965004049650040044B1B7813F0200F01D0012070470020704700BF69650040164B99785B78DBB2994205D25A1E914214BF0022012204E0CA1A632A21
:4010C00014BF00220122002AECD1994207D10D4B1B7813F0040F02D10B4B18707047632900D90021094B58540131054B9970054B1B7813F0020F02D00122054B1A60704757
:401100009081FF1F6B6500404B650040F016002000E200E038B5074B1B782BB938BDFFF7C1FF0134A4B201E005460024285D0028F5D138BD9081FF1F13E0104B1B78DBB257
:40114000632B02D900220D4B1A700C4A1378DBB20B49CB5CDBB20B490B7013780133DBB21370064B1B78DBB2074A1278934204D0064B1B7813F0040FDFD070479181FF1F69
:40118000F01600204B6500409281FF1F6B650040054A137843F0080313701032137843F008031370704700BFA2430040084A137843F060031370A2F5A652133A137843F084
:4011C000080313701032137843F008031370704777580040094B1A7802F0F7021A7008490A7802F0F7020A701B7813F0FF0F04D1044A137803F09F0313707047A443004032
:40120000B443004077580040054B1A7802F0FC021A701A7800F0030010431870704700BF5E58004008B50320FFF7EEFF08BD00BF08B5054B1B7823B90122034B1A70FFF78C
:40124000F1FFFFF7B3FF08BD9481FF1F08B5074B1B7813F0080F05D00122054B1A70FFF7B9FF08BD0022024B1A7008BDA44300409881FF1F08B5034B1B78012B01D1FFF72F
:4012800095FF08BD9881FF1F054A137843F0010313701032137843F001031370704700BFA8430040054A137803F0FE0313701032137803F0FE031370704700BFA8430040AC
:4012C000054B1A7802F0FD021A701A7800F0020010431870704700BF20580040014B1870704700BF805B0040094B1B7803F00C035B08084A127812F0040F00D0013303F16A
:40130000924393F82031DBB2034A1370704700BF20580040215800400846004008B51022064B1A70013300221A701A78D2B21A700220FFF7C5FFFFF7D7FF08BD20580040BB
:4013400008B5074B1B7823B9FFF7E8FF0122044B1A70FFF799FF7820FFF7C0FF08BD00BF9981FF1F08B5064B1A7802F0FB021A701A7800F0040010431870FFF7B5FF08BD96
:4013800021580040084A137843F0040313701032137843F00403137002F5A5521E32137843F0800313707047A9430040054A137803F0FB0313701032137803F0FB031370DC
:4013C000704700BFA9430040044A137803F0FC0300F0030018431070704700BF09580040072809D8054B1A7802F08F021A701A780001C0B210431870704700BF0A580040A4
:40140000032809D8054B1A7802F0F3021A701A788000C0B210431870704700BF0A58004010B50224084B1C700C2201331A70012201331A700020FFF7D3FF0320FFF7E0FF5F
:401440002046FFF7C1FF10BD0858004008B5054B1B7823B90122034B1A70FFF7E1FFFFF791FF08BD9A81FF1F08B5074B1B7813F0040F05D00122054B1A70FFF797FF08BD37
:401480000022024B1A7008BDA94300409C81FF1F08B5034B1B78012B01D1FFF773FF08BD9C81FF1F054A137843F0040313701032137843F004031370704700BFA843004041
:4014C000054A137803F0FB0313701032137803F0FB031370704700BFA8430040054B1A7802F0FD021A701A7800F0020010431870704700BF28580040014B1870704700BF80
:40150000825B0040064B1B78C3F3810303F19243063393F82831DBB2024A1370704700BF285800400A46004008B5064B1A7802F0F3021A701A7800F00C0010431870FFF7F8
:40154000E1FF08BD2858004010B50024054B1C7001331C700420FFF7E7FF2046FFF7BEFF10BD00BF2858004008B5074B1B7823B9FFF7EAFF0122044B1A70FFF793FF80209B
:40158000FFF7BAFF08BD00BFA081FF1F044B1B7813F0200F03D1034B1A78034B5A70704729580040825B0040A481FF1F0E4B1B7813F0200F16D10D4B1B7813F0080F0DD01A
:4015C0000A4B1A7802F0F7021A70094A5178094A11701A7842F008021A707047044B5A78044B1A70704700BF29580040975A0040A481FF1F825B004008B5084B1B7813F028
:40160000040F03D00122064B1A7002E00022044B1A70FFF755FFFFF7B9FF08BDA8430040A481FF1F08B5FFF7C1FF054B1B78012B05D1FFF737FF034B1878FFF75DFF08BD45
:40164000A481FF1F825B004008B500F05DFC08BD08B5084B1B7813F0080F03D00122064B1A7002E00022044B1A70FFF717F8FFF7EBFF08BDA8430040A881FF1F08B500F00B
:4016800053FC08BD08B5FFF7F9FF034B1B78012B01D1FEF7E7FF08BDA881FF1F38B59DF810506C1EE4B2012C51D8013809282ED8DFE800F0052D2D052D2D0F192D230F2BB6
:4016C00003D92548007840B222E02448007840B21EE00F2B03D92248007840B218E02148007840B214E00F2B03D91F48007840B20EE01E48007840B20AE00F2B03D91C48AF
:40170000007840B204E01B48007840B200E0002001EB401101FB02F1C90B8AB20D2B0BD8C3F10E0289B211418AB2691E124800EB810101338B7005E06B1E0F4901EB8303F5
:401740000F219970013D0C4B23F8252038BD0020FFF7C0FB38BD00BF180100491C010049190100491D0100491A0100491E0100491B0100491F010049AC81FF1FF8B5074650
:4017800000F062FE06460D4D2B7843F003032B700B4C237843F0030323700A4B1F700320FFF7B0FB2B7803F0FC032B70237803F0FC032370304600F04BFEF8BDF846004024
:4017C000F94600409258004070B5044600225D4B1A72012858D138225B4B1A70062202331A700923594A1370002501321570013215701F210132117002321570013215706C
:401800000132157001260A321670142102F527621170042101321170013213704C4B1D7022230432137024210132117001321670022102321170013213702822454B1A707C
:40184000EB2201331A704420FFF798FF5822424B1A7001331D7005331E7001331E7001331D700A2201331A704FF47A723B4B1A603146032000F0B2FB31460E2000F032FCFE
:4018800037491D20FFF76EFB022C59D138222E4B1A70062202331A7009232C4A1370002401321470013214701F210132117002321470013214700132147001250A321570B8
:4018C000142102F527621170013213700A26254B1E7001331C70112203331A70122201331A7001331D70022202331A70222201331A70282201331A70EB2201331A7044204C
:40190000FFF73CFF5822144B1A7001331C70052205331A7001331D7001331C7001331E704FF4FA620D4B1A602946032000F056FB29460E2000F0D6FB0B491D20FFF712FBF1
:4019400070BD00BFAC81FF1F004E0040034E004087580040905800409458004058170020911D000086580040951D00002DE9F04182B0304D4FF0010885F800802E4E0024B6
:401980007472102000F018FB102000F099FB07211D20FFF7FBFA0427284B1F7001331C7007331C70264A137843F018031370254B1C7003F2F5231C7001331C700A22A3F275
:4019C00009331A7001331C7002331C70122205331A70132201331A7004331C701422A3F68C231A70CDF800800C234FF4004248F65C710520FFF752FE022300930C234FF453
:401A0000004248F6B6513846FFF748FE2B78013B06EB83039A780C4B1A702B78013B36F823200A4B1A802878FFF7CEFE02B0BDE8F08100BFF880FF1FAC81FF1F96580040E5
:401A4000075B0040935800400E4E00400C4E004070B500F0F9FC06462A4B1B782A4B1A7842F001021A701A7842F010021A7010331A7842F001021A701A7842F010021A70EB
:401A8000224D2B7843F002032B70214C237843F0020323701F4A137843F0030313700320FFF730FA2B7803F0FD032B70237803F0FD032370184A137843F0060313707A22E1
:401AC000164B1A70164A137843F0010313701032137843F0010313700F3A137843F0010313701032137843F0010313704FF000530C4A1360A2F5C0721360304600F0A8FC19
:401B000070BD00BFF880FF1FAA430040F8460040F9460040915800407758004082580040A143004080E200E008B5084B9B7A4BB9064BDB7A13F0FF0F01D1FFF717FF012260
:401B4000024B9A72FFF784FF08BD00BFAC81FF1F70B500F079FC0646314A137803F0FE0313700132137843F0040313702D4D2B7843F002032B702C4C237843F00203237028
:401B800002F52962137803F0FC0313700132137803F0F70313700320FFF7B4F92B7803F0FD032B70237803F0FD0323701F4B1A7802F0EF021A701A7802F0FE021A701033A3
:401BC0001A7802F0FE021A701A7802F0EF021A70174A137803F0F9031370A2F5A652163A137803F0FE0313701032137803F0FE03137002F5A6521132137803F0F703137028
:401C0000A2F5A752137803F0FE0313701032137803F0FE031370304600F01AFC70BD00BF004E0040F8460040F9460040AA43004077580040024A137843F001031370704757
:401C4000004E00400E4B1B7803F00303012B03D80C4B188880B209E00A4A12780A49087842EA0020032B01D1084B1B78084B1B7A13F0FF0F02D00022054B5A7200B2704783
:401C8000144E0040104E0040114E0040124E0040AC81FF1F38B5431EDBB2012B20D804460D46114B9B7A13B901220F4BDA720F4B1C70FFF74DFF2046FFF786FD013C0A4B1F
:401CC00003EB840291780A4A117033F82420094B1A80012D07D1FFF727FFFFF7ABFF38BD0020FFF7F7F838BDAC81FF1FF880FF1F0E4E00400C4E0040024B1A78024B5A7077
:401D0000704700BF004E0040FC80FF1F024B5A78024B1A70704700BFFC80FF1F004E004008B50F4B1B7813F0010F12D00C4B1B7813F0100F0DD001220A4B1A700A4B1B78FF
:401D400013F0010F02D00322064B1A70FFF700FF02E00022034B1A70FFF7CEFF08BD00BFAA430040FC80FF1F004E004008B5FFF7CDFF064B1B7843B1FFF76AFE034B1B787B
:401D800013F0020F01D0FFF755FF08BDFC80FF1F704700BF704700BF10B5002404E02046FEF792FE0134E4B2012CF8D9FF22014B1A7010BDFE80FF1F10B50446FFF7ECFFD8
:401DC0002046FEF767FE014B1C7010BDFE80FF1F10B5002404E02046FEF79CFE0134E4B2002CF8D0FF22014B1A7010BDFF80FF1F10B50446FFF7ECFF2046FEF781FE014BEA
:401E00001C7010BDFF80FF1FF0B583B016461F460B4D00242C700194009423460A4601462046FEF7F9FF3A4631462878FEF7CEFF02212878FEF7B8FF287803B0F0BD00BFF8
:401E40000081FF1F054A137843F0080313701032137843F008031370704700BFA8430040054A137803F0F70313701032137803F0F7031370704700BFA8430040054B1A78EF
:401E800002F0FD021A701A7800F0020010431870704700BF2C580040064B1B78C3F3810303F19243063393F83831DBB2024A1370704700BF2C5800400B46004008B5064BC5
:401EC0001A7802F0F3021A701A7800F00C0010431870FFF7E1FF08BD2C58004008B50023084A13700132137002F27222137843F0080313700420FFF7E1FF0220FFF7BEFF09
:401F000008BD00BF2C580040044B1B7813F0200F03D1034B1A78034B5A7070472D580040835B0040B881FF1F0E4B1B7813F0200F16D10D4B1B7813F0080F0DD00A4B1A78BA
:401F400002F0F7021A70094A5178094A11701A7842F008021A707047044B5A78044B1A70704700BF2D5800409F5A0040B881FF1F835B0040054A137843F004031370103231
:401F8000137843F004031370704700BFA2430040054A137803F0FB0313701032137803F0FB031370704700BFA2430040014B188880B2704780400040034B1A7800F0F80077
:401FC00010431870704700BF82400040024B187800F00700704700BF8240004070B505460E46FFF7F3FF0446FFF7E0FFA84256D02B4B1B7803F0010294B900B185B938B93B
:40200000284B1D80284A137803F0BF03137070BD254A137843F040031370224B1D8070BD22B3002321490B7001240F310C7004310B700C390B7803F07F030B701A4B1B78E6
:4020400013F0080F00D08DB9194B18800721013B1970164B1B7813F0010FFAD110490B7803F0FE030B700021104B19700C4B1B7813F0010F0DD00E4B1D800EB1032200E091
:4020800001220A4B1A70094B1B7813F0010FFAD170BD044B1D8002490B7813430B7070BDA243004080400040824000400140004002400040014B188880B2704700410040F4
:4020C000034B1A7800F0F80010431870704700BF02410040024B187800F00700704700BF0241004070B505460E46FFF7F3FF0446FFF7E0FFA84256D02B4B1B7803F001029D
:4021000094B900B185B938B9284B1D80284A137803F0BF03137070BD254A137843F040031370224B1D8070BD22B3002321490B70012413310C7004390B7008390B7803F0A5
:402140007F030B701A4B1B7813F0080F00D08DB9194B18800721013B1970164B1B7813F0010FFAD110490B7803F0FE030B700021104B19700C4B1B7813F0010F0DD00E4BFC
:402180001D800EB1032200E001220A4B1A70094B1B7813F0010FFAD170BD044B1D8002490B7813430B7070BDA143004000410040024100400140004002400040024A137810
:4021C00043F080031370704775650040024A137803F07F031370704775650040014B1880704700BF086A0040024B1B78024B188880B2704714650040A86A0040014B188084
:40220000704700BF886A0040014B1880704700BF486A004008B50F4A137803F0C00343F0220313701F32137843F0010313700132137843F00103137040F65F10FFF7CEFF02
:4022400040F65F10FFF7DAFF4FF49660FFF7DCFF08BD00BF7565004008B5054B1B7823B9FFF7D8FF0122024B1A70FFF7A7FF08BDBA81FF1F014B1878704700BF75650040D9
:40228000014B1870704700BF75650040014B188880B27047886A004010B5FFF7F7FF044CA080FFF7A1FF6080FFF7E4FFA07110BDBC81FF1F10B5054CA088FFF79FFF608850
:4022C000FFF78CFFA079FFF7DBFF10BDBC81FF1F08B5084B1B7813F0800F03D00122064B1A7002E00022044B1A70FFF76FFFFFF7D3FF08BD75650040BC81FF1F08B5FFF750
:40230000D9FF034B1B780BB1FFF758FF08BD00BFBC81FF1F014B1B68D864704708ED00E04001C0B2014B1870704700BF03E400E00822014B1A60704700E100E0044B1B6867
:4023400013F0080F01D0012070470020704700BF00E100E00822014B1A60704780E100E010B50446FFF7F6FF2046FFF7D3FF0720FFF7D6FFFFF7DCFF10BD00BF014B1B6815
:402380005864704708ED00E04001C0B2014B1870704700BF01E400E00222014B1A60704700E100E00222014B1A60704780E100E010B50446FFF7F6FF2046FFF7DFFF072074
:4023C000FFF7E2FFFFF7E8FF10BD00BF014B1B689864704708ED00E04001C0B2014B1870704700BF02E400E00422014B1A60704700E100E0044B1B6813F0040F01D0012045
:4024000070470020704700BF00E100E00422014B1A60704780E100E010B50446FFF7F6FF2046FFF7D3FF0720FFF7D6FFFFF7DCFF10BD00BF000000000230800803D000BFE7
:4024400001380046FCD17047EFF3108072B6704780F31088704700BF81F0004102E000BF83F0004330B54FEA41044FEA430594EA050F08BF90EA020F1FBF54EA000C55EA4F
:40248000020C7FEA645C7FEA655C00F0E2804FEA5454D4EB5555B8BF6D420CDD2C4480EA020281EA030382EA000083EA010180EA020281EA0303362D88BF30BD11F0004F20
:4024C0004FEA01314FF4801C4CEA113102D0404261EB410113F0004F4FEA03334CEA133302D0524263EB430394EA050F00F0A780A4F10104D5F1200E0DDB02FA0EFC22FAC0
:4025000005F2801841F1000103FA0EF2801843FA05F359410EE0A5F120050EF1200E012A03FA0EFC28BF4CF0020C43FA05F3C01851EBE37101F0004507D54FF0000EDCF173
:40254000000C7EEB00006EEB0101B1F5801F1BD3B1F5001F0CD349085FEA30004FEA3C0C04F101044FEA445212F5800F80F09A80BCF1004F08BF5FEA500C50F1000041EBAB
:40258000045141EA050130BD5FEA4C0C404141EB010111F4801FA4F10104E9D191F0000F04BF01460020B1FA81F308BF2033A3F10B03B3F120020CDA0C3208DD02F1140CE9
:4025C000C2F10C0201FA0CF021FA02F10CE002F11402D8BFC2F1200C01FA02F120FA0CFCDCBF41EA0C019040E41AA2BF01EB0451294330BD6FEA04041F3C1CDA0C340EDC22
:4026000004F11404C4F1200220FA04F001FA02F340EA030021FA04F345EA030130BDC4F10C04C4F1200220FA02F001FA04F340EA0300294630BD21FA04F0294630BD94F047
:40264000000F83F4801306BF81F480110134013D4EE77FEA645C18BF7FEA655C29D094EA050F08BF90EA020F05D054EA000C04BF1946104630BD91EA030F1EBF0021002098
:4026800030BD5FEA545C05D14000494128BF41F0004130BD14F580043CBF01F5801130BD01F0004545F0FE4141F470014FF0000030BD7FEA645C1ABF194610467FEA655CF5
:4026C0001CBF0B46024650EA013406BF52EA033591EA030F41F4002130BD00BF90F0000F04BF0021704730B54FF4806404F132044FF000054FF0000150E700BF90F0000FC5
:4027000004BF0021704730B54FF4806404F1320410F0004548BF40424FF000013EE700BF42004FEAE2014FEA31014FEA02701FBF12F07F4393F07F4F81F06051704792F013
:40274000000F14BF93F07F4F704730B54FF4607401F0004521F0004120E700BF50EA010208BF704730B54FF000050AE050EA010208BF704730B511F0004502D5404261EBCC
:4027800041014FF4806404F132045FEA915C3FF4DCAE4FF003025FEADC0C18BF03325FEADC0C18BF033202EBDC02C2F1200300FA03FC20FA02F001FA03FE40EA0E0021FADF
:4027C00002F11444C1E600BF70B54FF0FF0C4CF4E06C1CEA11541DBF1CEA135594EA0C0F95EA0C0F00F0DEF82C4481EA030621EA4C5123EA4C5350EA013518BF52EA03358C
:4028000041F4801143F4801338D0A0FB02CE4FF00005E1FB02E506F00042E0FB03E54FF00006E1FB03569CF0000F18BF4EF0010EA4F1FF04B6F5007F64F5407404D25FEA6C
:402840004E0E6D4146EB060642EAC62141EA55514FEAC52040EA5E504FEACE2EB4F1FD0C88BFBCF5E06F1ED8BEF1004F08BF5FEA500E50F1000041EB045170BD06F0004680
:4028800046EA010140EA020081EA0301B4EB5C04C2BFD4EB0C0541EA045170BD41F480114FF0000E013C00F3AB8014F1360FDEBF002001F0004170BDC4F10004203C35DA56
:4028C0000C341BDC04F11404C4F1200500FA05F320FA04F001FA05F240EA020001F0004221F0004110EBD37021FA04F642EB06015EEA430E08BF20EAD37070BDC4F10C04F1
:40290000C4F1200500FA04F320FA05F001FA04F240EA020001F0004110EBD37041F100015EEA430E08BF20EAD37070BDC4F1200500FA05F24EEA020E20FA04F301FA05F20D
:4029400043EA020321FA04F001F0004121FA04F220EA020000EBD3705EEA430E08BF20EAD37070BD94F0000F0FD101F00046400041EB010111F4801F08BF013CF7D041EA0D
:40298000060195F0000F18BF704703F00046520043EB030313F4801F08BF013DF7D043EA0603704794EA0C0F0CEA135518BF95EA0C0F0CD050EA410618BF52EA4306D1D10D
:4029C00081EA030101F000414FF0000070BD50EA410606BF1046194652EA430619D094EA0C0F02D150EA013613D195EA0C0F05D152EA03361CBF104619460AD181EA0301E1
:402A000001F0004141F0FE4141F470014FF0000070BD41F0FE4141F4780170BD70B54FF0FF0C4CF4E06C1CEA11541DBF1CEA135594EA0C0F95EA0C0F00F0A7F8A4EB05048D
:402A400081EA030E52EA03354FEA013100F088804FEA03334FF0805545EA131343EA12634FEA022245EA111545EA10654FEA00260EF000419D4208BF964244F1FD0404F5E8
:402A8000407402D25B084FEA3202B61A65EB03055B084FEA32024FF480104FF4002CB6EB020E75EB030E22BFB61A754640EA0C005B084FEA3202B6EB020E75EB030E22BFED
:402AC000B61A754640EA5C005B084FEA3202B6EB020E75EB030E22BFB61A754640EA9C005B084FEA3202B6EB020E75EB030E22BFB61A754640EADC0055EA060E18D04FEAC9
:402B0000051545EA16754FEA06164FEAC30343EA52734FEAC2025FEA1C1CC0D111F4801F0BD141EA00014FF000004FF0004CB6E711F4801F04BF01430020B4F1FD0C88BF99
:402B4000BCF5E06F3FF6AFAEB5EB030C04BFB6EB020C5FEA500C50F1000041EB045170BD0EF0004E4EEA113114EB5C04C2BFD4EB0C0541EA045170BD41F480114FF0000ED8
:402B8000013C90E645EA060E8DE60CEA135594EA0C0F08BF95EA0C0F3FF43BAF94EA0C0F0AD150EA01347FF434AF95EA0C0F7FF425AF104619462CE795EA0C0F06D152EAA8
:402BC00003353FF4FDAE1046194622E750EA410618BF52EA43067FF4C5AE50EA41047FF40DAF52EA43057FF4EBAE12E74FEA4102B2F1E04324BFB3F5001CDCF1FE5C0DD911
:402C000001F0004C4FEAC0024CEA5070B2F1004F40EB830008BF20F00100704711F0804F21D113F13872BCBF01F00040704741F480114FEA5252C2F11802C2F1200C10FA0B
:402C40000CF320FA02F018BF40F001004FEAC1234FEAD32303FA0CFC40EA0C0023FA02F34FEA4303CCE77FEA625307D150EA01331EBF4FF0FE4040F44000704701F000405C
:402C800040F0FE4040F40000704700BF80F0004002E000BF81F0004142001FBF5FEA410392EA030F7FEA226C7FEA236C6AD04FEA1262D2EB1363C1BFD218414048404140C1
:402CC000B8BF5B42192B88BF704710F0004F40F4000020F07F4018BF404211F0004F41F4000121F07F4118BF494292EA030F3FD0A2F1010241FA03FC10EB0C00C3F12003CF
:402D000001FA03F100F0004302D5494260EB4000B0F5000F13D3B0F1807F06D340084FEA310102F10102FE2A51D2B1F1004F40EBC25008BF20F0010040EA0300704749004A
:402D400040EB000010F4000FA2F10102EDD1B0FA80FCACF1080CB2EB0C0200FA0CF0AABF00EBC25052421843BCBFD0401843704792F0000F81F4000106BF80F400000132E4
:402D8000013BB5E74FEA41037FEA226C18BF7FEA236C21D092EA030F04D092F0000F08BF0846704790EA010F1CBF0020704712F07F4F04D1400028BF40F00040704712F116
:402DC00000723CBF00F50000704700F0004343F0FE4040F4000070477FEA226216BF08467FEA23630146420206BF5FEA412390EA010F40F4800070474FF0000304E000BF55
:402E000010F0004348BF40425FEA000C08BF704743F0964301464FF000001CE050EA010208BF70474FF000030AE000BF50EA010208BF704711F0004302D5404261EB4101D9
:402E40005FEA010C02BF84460146002043F0B64308BFA3F18053A3F50003BCFA8CF2083AA3EBC25310DB01FA02FC634400FA02FCC2F12002BCF1004F20FA02F243EB02006A
:402E800008BF20F00100704702F1200201FA02FCC2F1200250EA4C0021FA02F243EB020008BF20EADC7070474FF0FF0C1CEAD0521EBF1CEAD15392EA0C0F93EA0C0F6FD020
:402EC0001A4480EA010C400218BF5FEA41211ED04FF0006343EA501043EA5111A0FB01310CF00040B1F5000F3EBF490041EAD3715B0040EA010062F17F02FD2A1DD8B3F100
:402F0000004F40EBC25008BF20F00100704790F0000F0CF0004C08BF49024CEA502040EA51207F3AC2BFD2F1FF0340EAC250704740F400004FF00003013A5DDC12F1190F45
:402F4000DCBF00F000407047C2F10002410021FA02F1C2F1200200FA02FC5FEA310040F1000053EA4C0308BF20EADC70704792F0000F00F0004C02BF400010F4000F013AD7
:402F8000F9D040EA0C0093F0000F01F0004C02BF490011F4000F013BF9D041EA0C018FE70CEAD15392EA0C0F18BF93EA0C0F0AD030F0004C18BF31F0004CD8D180EA0100B4
:402FC00000F00040704790F0000F17BF90F0004F084691F0000F91F0004F14D092EA0C0F01D142020FD193EA0C0F03D14B0218BF084608D180EA010000F0004040F0FE40D7
:4030000040F40000704740F0FE4040F4400070474FF0FF0C1CEAD0521EBF1CEAD15392EA0C0F93EA0C0F69D0A2EB030280EA010C49024FEA402037D04FF0805343EA1111D6
:4030400043EA10130CF000408B4238BF5B0042F17D024FF4000C8B4224BF5B1A40EA0C00B3EB510F24BFA3EB510340EA5C00B3EB910F24BFA3EB910340EA9C00B3EBD10F79
:4030800024BFA3EBD10340EADC001B0118BF5FEA1C1CE0D1FD2A3FF650AF8B4240EBC25008BF20F0010070470CF0004C4CEA50207F32C2BFD2F1FF0340EAC250704740F4A0
:4030C00000004FF00003013A37E792F0000F00F0004C02BF400010F4000F013AF9D040EA0C0093F0000F01F0004C02BF490011F4000F013BF9D041EA0C0195E70CEAD1535A
:4031000092EA0C0F08D142027FF47DAF93EA0C0F7FF470AF084676E793EA0C0F04D14B023FF44CAF08466EE730F0004C18BF31F0004CCAD130F000427FF45CAF31F000434D
:403140007FF43CAF5FE700BF4FEA4002B2F1FE4F0FD34FF09E03B3EB12620DD94FEA002343F0004310F0004F23FA02F018BF404270474FF00000704712F1610F01D1420208
:4031800005D110F0004008BF6FF0004070474FF000007047014B1868704700BF6481FF1F0E4B70B51E460E4C0025E41AA410A54204D056F8253098470135F8E700F066F8EE
:4031C000084B094C1E46E41AA4100025A54204D056F8253098470135F8E770BD983200009832000098320000A032000010B5431E0A44914204D011F8014B03F8014FF8E7A3
:4032000010BD03460244934202D003F8011BFAE77047000000000000476C75636F7365202424240043562072656164790000000014001E00280050007800FA00F401E803B4
:40324000845A0040205A0040244300402443004002020000405100403000F0510040100000000140001000140140000800400140000A004C01400002005001402000000019
:40328000040000000D51004043000000F8B500BFF8BC08BC9E4670474D000000AD0C0000F8B500BFF8BC08BC9E46704729000000C0320000C880FF1FA0000000F895000077
:4032C00000000000FF000000808080808080808080808080808080807F800000010000000000E02EC05D00001800000000366E01010000000038FFFFFF00000000000000B1
:4033000000000000000000000000000000000000000000000000000000000000883200000000000000000000000000000000000000000000000000000000000000000000D3
:40334000000000000000000000000000000000000000000000000000000000000481FF1F0000000000000000000000000000000000000000000000000000000000000000AA
:40338000000000000000000000000000000000000000000000000000000000000000000000000000000000000000000000000000000000000000000000000000000000000D
:4033C00000000000000000000000000000000000000000000000000000000000000000000000000000000000000000000000000000000000000000000000000000000000CD
:40340000000000000000000000000000000000000000000000000000000000000000000000000000000000000000000000000000000000000000000000000000000000008C
:40344000000000000000000000000000000000000000000000000000000000000000000000000000000000000000000000000000000000000000000000000000000000004C
:020000040003F7
:0200000480007A
:4000000002520040015A004001640040026500400203014002050140030701403608014028090140010B01403A140140191501400416014003170140631801404419014020
:400040004E1A0140481B014009400140054101400542014006430140024401400145014004460140054701400748014005490140074D014005500140025101406180644087
:400080009F01897289388B0F8D01E6409D01E00286109D01E409240128012C0130013A2058045C035F0180018110841F8518881389088A0C8E038F409002913C9382940355
:4000C0009704981F99A79B189F40A008A104A404A51CA7A1A80CA9BFAC1CAE03AFA3B010B138B20FB31FB598B740BA08BB28BE01BF40D602D713D804D904DB04DC33DD309E
:40010000DF01001A0302081009010A200B0411011202132A15801714181019011C081D101F0221082345281029102A022B0232263380382839013B40590169946B147014B9
:40014000732AC00FC20EC4EFCA0FCC0FCE0FD601E409E0024050410149FF4AFF4BFF4DA04F0450185A045D015F01604062C06440654066C068C06AC06CC06EC080049301F3
:400180009E02A601AE03B003B101B404BE10C010C105C510C602C80EC9FFCAFFCBFFCDAFCE0FCF04D018D280D804D904DA04DB04DC11DD11DF01E040E2C0E440E540E6C0B0
:4001C000E8C0EAC0ECC0EEC005010F02161017401D21260127403502418047404A014F8255805610574075028D209D01C010C280C4A0CC80D018D218E64239203F10590403
:400200005F0126109D01A61007010C0A0E14150318201A051C031E0424132503260428132A0C2D022E083103340F3630388039023A203F014001470449FF4A074BFF4C4020
:400240004D204EF04F055008580459045A045C035D035F01604061A862406320801182888403870189018A038E039203940B9670970198039E04A022A288A438A838A90170
:40028000AE04B003B101B238B404B6C0B902BE50C034C106C205C401C60CC7E0C824C9FFCAFFCBFFCC62CDA0CEF0CF41D00CD418D804D904DA04DB04DC33DD33DF01E64073
:4002C000E702E910EA30EB10ED10EE10EF12000A030A058008210A220F0A11161282154016081708180119111A201F602201278029202D802E082F20310833083708381078
:4003000039403B843F08403143024780480449204B404F0852025380560459016110630188018B0490109114934596289B049E02A004A108A302A401A501A780B410B50863
:40034000B622C08FC2CFC4EFCA54CC42CE46D01BD20CD601D80C010103060401050306060B280C0C0E030F30120C15031A031B181D021F012401260E27082A082B102D3078
:400380002F0833043538360F37033A803B20580459045C335F0188018E019402950C971199109A019E019F03A109A310A510A70CA801A914AC04AD1CAF02B001B11FB4021E
:4003C000B604BE51C023C106C6B0C7CEC838C9FFCAFFCBFFCEF0CF44D00CD401D604D804D904DA04DB04DC30DD33DF01E6C0EA40EB020180032005A0070808100B800C187A
:400400000F0A10041204132815201608178019801E4A2120228423082780281429802D802E202F6031203280330437A839243A023B80441046084D205408562057015D1018
:400440005E485F01674082018510874188018A028C088F019104938096089A0C9B049D809E029F08A324A401A680A701C0C5C2EAC4C6CAFECC7ECE0FD060D220D6F0D880A3
:40048000E40132203302358037083C1053025980CCF0CE208F0894109D809F08A620870194109D80A620E040801094109D809F01A620E4807F04DE0197084508850897082F
:4004C000D0013240824087049708CC082410270194109D809F01A620C8A086208D809D80A620E6401040700480048840C408DC01E20100080C08100A1A021C0800FF10022F
:400500000000000000001400800040808000800000000000000B0B00000000000000000000004000000000000000A0000E001801000000000000000000000000000000004A
:40054000000000000000000000000000000000000000000000000000000000000000000000000000000000000000000000000000000000000000000000000000000000007B
:40058000000000000000000000000000000000000000000000000000000000000000000000000000000000000000000000000000000000000000000000000000000000003B
:4005C00000000000000000000000000000000000000000000000000000000000000000000000000000000000000000000000000000000000000000000000000000000000FB
:4006000000000000000000000000000000000000000000000000000000000000000000000000000000000000000000000000000000000000000000000000000000000000BA
:0200000490006A
:0400000000004005B7
:0200000490105A
:04000000BC90ACAF55
:0200000490303A
:02000000E063BB
:0200000490402A
:4000000000000000000000000000000000000000000000000000000000000000000000000000000000000000000000000000000000000000000000000000000000000000C0
:400040000000000000000000000000000000000000000000000000000000000000000000000000000000000000000000000000000000000000000000000000000000000080
:400080000000000000000000000000000000000000000000000000000000000000000000000000000000000000000000000000000000000000000000000000000000000040
:4000C0000000000000000000000000000000000000000000000000000000000000000000000000000000000000000000000000000000000000000000000000000000000000
:0200000490501A
:0C00000000012E16106900012E2AF0CC21
:00000001FF