:400000000080002011000000951400009514000008B5044B1A6803F53F5302331A6001F059FA00BFFA46004010B5054C237833B9044B13B10448AFF300800123237010BDD1
:400040005085FF1F0000000068400000084B10B51BB108490848AFF300800848036803B910BD074B002BFBD0BDE81040184700BF000000005485FF1F68400000C880FF1F9A
:40008000000000002DE9F04FA1B04FF47A7001F07DFA00248C4B1C7062B601F067FB01F0E5FA052001F072FA3D2000F08DFA682000F082FD854B1C806422214607A803F0FB
:4000C0006CFB834801F0ECFA824801F0E9FA824801F0E6FA0A2001F059FA804801F0E0FA09E022467E4907A803F092FB07A801F0D7FA0134E4B20F2CF3D900241FE014F00C
:400100000F0F07D12246774907A803F081FB07A801F0C6FA0021204601F0A4FC40B922466F4907A803F074FB07A801F0B9FA02E06D4801F0B5FA01F00BFD0134E4B214F08F
:40014000800FDCD0694801F0ABFA00265E4B1B78012B73D013B1022B7AD0F7E700F0AEFC682000F0FDFE624D624C2B78624A4021204603F01BFB204601F092FA5F4F3B7846
:400180005F4A4021204603F011FB204601F088FADFF8948198F800305A4A4021204603F005FB204601F07CFADFF870B19BF80030554A4021204603F0F9FA204601F070FA58
:4001C000DFF85CA19AF80030504A4021204603F0EDFA204601F064FADFF84891B9F800304B4A4021204603F0E1FA204601F058FA9BF800309AF80020B9F8001098F800004F
:400200003F782D7804950397029001910092414A4021204603F0CAFA204601F041FA4EB9642000F061FF294B1888073880B200F0F3FF01260122244B1A7087E701F0FCFC02
:40024000354B1870002881D102221F4B1A707DE7682000F085FE314B1B78314A12783149098831480078254C2578214C2778214C04970395029001910092264A40212046CE
:4002800003F094FA00F0FEF900F00AFA012000F037FA012000F02AFA0021084600F01CFA204600F003FC00F0FBF901F0C5FC0346194A10701D4A642107A803F077FA07A831
:4002C00001F0EEF942E700BFC485FF1FD285FF1F704000008440000098400000AC400000B4400000BC400000C4400000C8400000D685FF1F6C85FF1FCC400000D085FF1F27
:40030000DC400000EC400000F8400000084100001441000020410000D785FF1FBE85FF1FD485FF1FBC85FF1FC385FF1F3C410000F0B5BDF81440904267D10D46002900DA9C
:40034000CD1DED1000EBC510444F07441846002B00DAD81DC01002EBC012404810443A4650E0BA4218D13E4D0D4003D5013D65F007050135EEB2F5186D1AEDB2062D00D93C
:400380000725AD1B01354FF0010E0EFA05F5013D05FA06F6F6B20EE082420CD1304D1D4003D5013D65F0070501352DB2012606FA05F56E1EF6B2BA4201D0824212D1012CF7
:4003C00003D034B1022C09D01BE015783543157017E0157825EA0605157012E01578754015700EE0012C03D02CB1022C06D008E0FF25157005E00025157002E01578ED434F
:40040000157080328242ACD9F0BD0B46002900DACB1DDB1000EBC313104D2B44121A1A4401F00701012000FA01F1CDB212E0012C03D034B1022C09D00BE018782843187080
:4004400007E0187820EA0100187002E018786840187001339342EAD9F0BD00BFCD80FF1F07000080B1F90020104B1B78022B0AD0032B13D0012B17D1B0F900300B80C2F1AB
:400480007F0202807047B0F90030C3F17F030380B1F90030C3F13F030B807047B0F90030C3F13F030B800280704700BFD585FF1F10B584B0ADF80E00ADF80C10ADF80A20D8
:4004C000ADF80830904203D009B21BB299425FD1304B1B78012B01D0032B11D180B23F2856D8002A54DB3F2A52DCBDF80C307F2B4ED8BDF90830002B4ADB7F2B11DD47E057
:40050000BDF80C303F2B43D8BDF90830002B3FDB3F2B3DDC80B27F283AD8002A38DB7F2A36DC03A90DF10E00FFF79CFF02A90DF10A00FFF797FFBDF90E30BDF90A2093427B
:4005400005D1BDF90800BDF90C10884207DBBDF90C00BDF9081088420DD193420BDDADF80E20ADF80A30BDF90C30BDF80820ADF80C20ADF80830BDF90830BDF90A20BDF9C1
:400580000C10BDF90E00BDF818400094FFF7D0FE04B010BDD585FF1FF8B507460E460021084B187801F05EFA0024FF2504E0385D01F0EAFA05460134B442F8DB01F0C8FAD0
:4005C0002846F8BDAD85FF1F30B589B0094B1870094D01AC28686968AA68EB680FC42869696903C42B8B23801A2101A8FFF7D4FF09B030BDAD85FF1F4041000083B27F2B6C
:400600003CD800293ADB3F2938DC012A03D09AB1022A23D070471A4A0B46002900DACB1DDB1000EBC31001F00701012303FA01F1135C194311547047114A0B46002900DAE2
:40064000CB1DDB1000EBC31001F00701012303FA01F1135C23EA010111547047084A0B46002900DACB1DDB1000EBC31001F00701012303FA01F1135C59401154704700BF1D
:40068000CD80FF1F10B5054C4FF480620021601C03F083F84023237010BD00BFCC80FF1F00B583B00A4B53F81C0F00909A889B79ADF804208DF8063007216846FFF76CFF69
:4006C00040F201410348FFF767FF03B05DF804FB40410000CC80FF1F024B1880024B1980704700BFD885FF1FC085FF1F024B1880024B1880704700BFDC85FF1FDE85FF1F8E
:4007000008B90120FFE7014B18707047DB85FF1F10B582B0ADF80600ADF8041080B27F2811D80BB2002B0EDB3F2B0CDC144601A90DF10600FFF796FE2246BDF90410BDF92E
:400740000600FFF75BFF02B010BD00BF2DE9F04F83B08046894692461E46BDF930B0BDF834300093BDF838300193F71D00D50737FF1000252CE007FB05F22346002C00DACA
:40078000E31D43F3CF0313441AF80320A4B204F0070180230B411A4209D009EB050104EB0800009A09B200B2FFF7B2FF08E009EB050104EB0800019A09B200B2FFF7A8FF12
:4007C000013424B200E00024B442D4DB01352DB25D45F8DB03B0BDE8F08F00BF2DE9F04F85B005460E461746BDF838200292B84201D0994207D1029A00923A4631462846ED
:40080000FFF756FE52E0C1EB0308B8F1000FB8BFC8F10008C0EB0709B9F1000FB8BFC9F10009C84504DD3A461F4613460D460646BD4205DD32461E4613462A463D461746B6
:40084000C5EB070B1FFA8BFB0FFA8BF4C6EB030ABAF1000FB8BFCAF1000A04EBD47464109E4202DA012303931EE04FF0FF3303931AE0C84505DD029A29463046FFF748FF0E
:4008800004E0029A31462846FFF742FFCAEB0404A3B21CB2002C05DA039A164436B20BEB030424B201352DB2BD42E2DD05B0BDE8F08F00BF2DE9F04383B005460E4617461C
:4008C0009846BDF8289093420FDC0C461EE006EB0803013BCDF800901BB2224631462046FFF77CFF013424B200E00446EB199C42EDDB0FE0EA19013ACDF80090234612B2FF
:4009000021462846FFF76AFF013424B206EB08039C42EFDB03B0BDE8F08300BF2DE9F04F85B0BDF838B09DF83C607F2860DC3F295EDC06EB46056C000444012C58D401EB38
:40094000C604012C54D4984603928A46814600274CE0052F08D0039B03EB83033B44264A134493F8245000E0002500243AE015F0010F19D0012E09D104EB0A0107EB090059
:40098000424609B200B2FFF7C3FE28E0B0B232B204FB00A107FB0090CDF80080134609B200B2FFF787FF1AE0D84518D0012E09D104EB0A0107EB09005A4609B200B2FFF784
:4009C000A7FE0CE0B0B232B204FB00A107FB0090CDF800B0134609B200B2FFF76BFF6D08013464B2072CC2DD01377FB2052FB0DD05B0BDE8F08F00BF404100000A280AD171
:400A00001D4A1E4B1978138803EBC103138000221B4B1A8070470D28FCD070B582B00246184B1B881449B1F90010154CB4F90000124D2E780196144E36880096FFF76EFF1C
:400A40002A7891B201EB41035800238803441BB223800E48007860B1A2EB820250008030834206DD044A138803EBC10111800022228002B070BD00BFC085FF1FDB85FF1FA2
:400A8000D885FF1FDE85FF1FDC85FF1FDA85FF1F70B5064602F0E0FE0546002403E0305DFFF7ACFF0134AC42F9D370BD08B5FFF7EFFF0A20FFF7A2FF08BD00BF30B585B061
:400AC000FFF7E0FDFFF7ECFD0025029501230193402300938023334A29462846FFF736FEFFF7DEFD0CE0022221B228B2FFF786FD013400E000243F2CF5DDFFF7D1FD01353C
:400B00007F2DF7DDFFF7BEFD00240EE00122052120B2FFF7FDFDC4F17F0001223B2100B2FFF7F6FDFFF7BCFD01346E2CEEDD0220FFF7E6FD0120FFF7D9FD18210520FFF794
:400B4000CBFD1948FFF7B2FFFFF7AAFD4FF47A7000F01CFDFFF796FDFFF7A2FD0120FFF7CFFD0120FFF7C2FD0C210F20FFF7B4FD0E48FFF79BFF1B212820FFF7ADFD0C489A
:400B8000FFF794FF2A211220FFF7A6FD0948FFF78DFFFFF785FD40F6B83000F0F7FC05B030BD00BF60460000604A00006C4A0000804A00008C4A0000704700BFF8B50646D4
:400BC0000D461746002100F04DFF044668B9284600F0DAFF044640B90121304600F082FF044610B900F0FCFF387000F0B1FF201C18BF0120F8BD00BF2DE9704305460024D4
:400C000026461BE045FA04F313F0010F15D0204602F056FA02460B4600204FF0804101F023F880468946304602F04AFA42464B4602F0FAF802F05AFDC6B20134032CE1DD91
:400C400004241FE045FA04F313F0010F19D0201F02F036FA02460B4600204FF0804101F003F800220A4B02F091FA80468946304602F026FA42464B4602F0D6F802F036FD06
:400C8000C6B20134062CDDDD3046BDE8708300BF000024402DE970430546002426461BE045FA04F313F0010F15D0204602F008FA02460B4600204FF0804100F0D5FF804600
:400CC0008946304602F0FCF942464B4602F0ACF802F00CFDC6B20134032CE1DD04241FE045FA04F313F0010F19D0201F02F0E8F902460B4600204FF0804100F0B5FF00229A
:400D00000A4B02F043FA80468946304602F0D8F942464B4602F088F802F0E8FCC6B20134072CDDDD3046BDE8708300BF000024402DE970430546002426461BE045FA04F360
:400D400013F0010F15D0204602F0BAF902460B4600204FF0804100F087FF80468946304602F0AEF942464B4602F05EF802F0BEFCC6B20134032CE1DD04241FE045FA04F399
:400D800013F0010F19D0201F02F09AF902460B4600204FF0804100F067FF00220A4B02F0F5F980468946304602F08AF942464B4602F03AF802F09AFCC6B20134052CDDDD30
:400DC0003046BDE8708300BF000024402DE970430546002426461BE045FA04F313F0010F15D0204602F06CF902460B4600204FF0804100F039FF80468946304602F060F901
:400E000042464B4602F010F802F070FCC6B20134032CE1DD04241FE045FA04F313F0010F19D0201F02F04CF902460B4600204FF0804100F019FF00220A4B02F0A7F9804648
:400E40008946304602F03CF942464B4601F0ECFF02F04CFCC6B20134052CDDDD3046BDE8708300BF000024402DE970430546002426461BE045FA04F313F0010F15D02046DB
:400E800002F01EF902460B4600204FF0804100F0EBFE80468946304602F012F942464B4601F0C2FF02F022FCC6B20134022CE1DD05F01005AB001D4468003044C0B2BDE812
:400EC000708300BF2DE970430546002426461BE045FA04F313F0010F15D0204602F0F0F802460B4600204FF0804100F0BDFE80468946304602F0E4F842464B4601F094FF59
:400F000002F0F4FBC6B20134032CE1DD04241FE045FA04F313F0010F19D0201F02F0D0F802460B4600204FF0804100F09DFE00220A4B02F02BF980468946304602F0C0F85E
:400F400042464B4601F070FF02F0D0FBC6B20134072CDDDD3046BDE8708300BF0000244010B582B002AA02F8010D00216820FFF725FE012802D1314800F092FB02AC14F857
:400F8000010DFFF739FE2E4B1870224601216820FFF714FE012802D12A4800F081FB02AC14F8010DFFF776FE274B1870224602216820FFF703FE012802D1244800F070FB08
:400FC00002AC14F8010DFFF7B3FE214B1870224604216820FFF7F2FD012802D11D4800F05FFB02AC14F8010DFFF7F0FE1A4B1870224605216820FFF7E1FD012802D117480B
:4010000000F04EFB02AC14F8010DFFF72DFF144B1870224606216820FFF7D0FD012802D1104800F03DFB9DF80700FFF74BFF00F5FA600D4B188002B010BD00BF904B00001C
:40104000D685FF1FB44B0000D085FF1FD84B0000C385FF1FF84B0000BE85FF1F184C0000D485FF1F384C0000BC85FF1FF8B506460D461746002100F0F5FC044688B9ECB2C6
:40108000280A00F081FD204600F07EFD044640B90121304600F026FD044610B900F0A0FD387000F055FD201C18BF0120F8BD00BF70B50D461646002100F0D4FC044660B987
:4010C000ECB2280A00F060FD204600F05DFD044618B9304600F058FD044600F039FD201C18BF012070BD00BF10B504463C4B1A783C4B19885020FFF7DBFF012802D13A48AF
:4011000000F0CEFA322000F041FA364B19880131364B1A7889B25020FFF7CAFF012802D1334800F0BDFA322000F030FA2D4B19880231304B1A7889B25020FFF7B9FF012844
:4011400002D12D4800F0ACFA322000F01FFA254B19880331294B1A7889B25020FFF7A8FF012802D1264800F09BFA322000F00EFA1C4B19880431234B1A7889B25020FFF78C
:4011800097FF012802D1204800F08AFA322000F0FDF9144B198805311C4B1A7889B25020FFF786FF012802D1194800F079FA322000F0ECF90B4B19880631224689B250200C
:4011C000FFF776FF012802D1124800F069FA322000F0DCF9034A13880733138010BD00BFD685FF1FD285FF1F584C0000D085FF1F844C0000C385FF1FB04C0000BE85FF1FEB
:40120000DC4C0000D485FF1F084D0000BC85FF1F344D0000604D000000B593B00DF1470201465020FFF722FF012802D1084800F037FA9DF84730074A402101A802F0B6FAAA
:4012400001A800F02DFA9DF8470013B05DF804FB944D0000C04D0000FEE700BFF0B40022174611E050F82760F3B226F0FF0608E001EB420511F812406D78A5550132013BC2
:40128000DBB2002BF4D101370E2FEBD9F0BC7047064B1B78DBB203F00701054A11701B09013213704422034B1A707047CF0100496E5800407658004008B50A46002102F0BD
:4012C0006CFA08BD38B54FF49C72244B1A80182202331A70022203F27E231A7008224FF040231A70032103F5007319701C4B1B78DBB21C490B701C4B1A8041F25122023B86
:401300001A80002419250CE0184B1B7803F0010343EA440404F003044FF4F07000F094FC013D0DB1032CEFD115B90320FFF794FF0F4B4FF480721A8007221A7000220D498C
:401340000A704820023108701A700222033B1A70094A137843F00103137038BD8040004008010049A146004022420040254200400440004006400040A243004008B502F03B
:4013800001FA08BD38B572B6334A137843F00403137000240CE0314D630019194A0011462A44084691882858FFF786FF0134E4B2092CF0D900240CE02848A20011194B009F
:4013C0000344B3F84420196CD86BFFF7D7FF0134E4B2012CF0D922494FF09040FFF73EFF204A137843F0020313701032137843F0020313701C4C237843F040032370A2F5BA
:401400008632513A137843F0100313700A2217491748FFF7B3FF0A2216491748FFF7AEFF0A2216491648FFF7A9FF164A137843F008031370144D61232B70FFF743FF812366
:401440002B700122114B1A70FFF722FF0E2221460F48FFF793FF38BDE8460040D44D00003C00004803500140A043004060030048C05100406C030048105100407803004865
:4014800020510040224300400048004004000840B043004008B502F049F903680C2B00D1FEE7FEE708B5094B1A681044084BC31A802B02DC054B186005E002F037F90C2303
:4014C00003604FF0FF32104608BD00BFD084FF1F0086FF1F08B5104E104D16E029686B68AC68002204E051F8040B43F8040B0432A242F8D1E868002203E0002143F8041BE8
:4015000004328242F9D11035013E002EE6D102F013F9FEF7B7FDFEE701000000944E000008B5104A104B1A60104A136843F40073136000230AE0032B03D80D4A52F8231047
:4015400000E00C490C4A42F8231001332F2BF2D90A4B1A780A4B1A70074A0A4B1A60FFF711FF08BD0004FA050CED00E014ED00E000000000951400000080FF1FBC760040F3
:40158000C080FF1F08ED00E001BE704710B5044605E0084B186800F057FBA4F50044B4F5004FF6D8034B586800FB04F000F04CFB10BD00BFD484FF1F70B504460E46074B8B
:4015C0001D681F2802D90020FFF7DEFF04F01F04103455F8240045F8246070BD08ED00E038B504460D46072902D90020FFF7CCFF1F2C02D90020FFF7C7FF04F01F0000F146
:40160000604000F564406D01EDB2057038BD00BF7222074B1A70202201331A7006225F3B1A70472210331A70002251331A7070478865004010B500F00FFB04460A4A13784D
:4016400043F0200313700132137843F0100313700232137843F01003137000F033F8204600F0FEFA10BD00BF9865004008B5054B1B7823B9FFF7CCFF0122024B1A70FFF723
:40168000D9FF08BDAE85FF1F034B1B7813F0040FFAD1024B187070476B6500404B65004038B5074B1B782BB938BDFFF7EDFF0134A4B201E005460024285D0028F5D138BD1E
:4016C000AE85FF1F054A137843F0010313701032137843F001031370704700BFA243004010B50222114B1A7081220E3B1A70082202331A70042211331A70002401331C70DD
:401700004FF400420A4B1A6007210F20FFF768FF08490F20FFF750FF1022074B1A70074B1C70074B1C70074B1C7010BDD649004080E100E095170000E085FF1FF585FF1F00
:40174000EE85FF1FEC85FF1F08B500F085FA064A137843F0040313701032137843F00403137000F07DFA08BDA543004008B5074B1B7823B9FFF7B4FF0122044B1A70FFF78E
:40178000E3FF4FF40042024B1A6008BDB085FF1F00E100E038B5A54B1C78A54B1B7813F0400F00F03A81E4B214F0010F00F01D819F4B1B78453B052B00F21481DFE813F07B
:4017C00006008200120112010600DF0004F0DF0504F00A04082C42D1954B1B78DBB2452B35D1944B1B7813F0FF0F10D0924B1B681B78DBB2914A137004228C4B1A700122D4
:401800008F4B1A7046228A4B1A702C46EDE08D4B1B7813F0020F0DD08B4A137843F00A0313706022824B1A704FF40042874B1A602C46DAE0864A137843F010031370102293
:40184000844B1A700422023B1A702C46CDE00022764B1A704A22764B1A702C46C5E00A2C2BD1794A137843F0A0031370754B1B7813F0020F14D06E4B1B7813F0080F01D06D
:40188000092300E00A23704A11780B4313706022674B1A704FF400426C4B1A602C46A4E06B4A137843F0100313701022694B1A700422023B1A702C4697E00020FFF764FEAA
:4018C0002C4692E014F0020F36D15D4B1A78D2B2584B1B78DBB29A4210D2594A1378DBB255490968CB5CDBB254490B7004214F4B197013780133DBB2137076E0514B1B7877
:4019000013F0020F0CD0504A137843F00A0313706022474B1A704FF400424C4B1A6064E04B4A137843F0100313701022494B1A700422023B1A7058E0424B1B7813F0020FC5
:401940000CD0414A137843F09A0313706022384B1A704FF400423D4B1A6046E03C4A137843F01003137010223A4B1A700422023B1A70354A137843F09003137035E0364AF6
:401980001378DBB2354908682C490978C9B2C15413780133DBB213701278D2B2304B1B78DBB29A4203D21022204B1A701DE0254B1B7813F0020F0CD0234A137843F0090324
:4019C000137060221A4B1A704FF400421F4B1A600BE01F4A137843F0100313700022134B1A7002E00020FFF7CFFD14F0200F1CD00F4B1B7813F0080F01D0012300E00223F4
:401A0000114A11780B431370114A137803F0EF0313701022064B1A7038BD054B1B7813F0100F02D11022024B1A7038BDD7490040E085FF1FE485FF1FE885FF1FD849004075
:401A4000EC85FF1FF485FF1FF585FF1F80E100E0D6490040D9490040EE85FF1FF085FF1FED85FF1F1A4B1B78DBB2102B29D1194B1B7813F0080F26D14FF40042164B1A60D0
:401A80004000C0B229B140F001004922104B1A7002E045220E4B1A70104B1870012201331A700F4B1B7813F0010FFAD00C4B1B7803F00A030A2B08D11022054B1A70032038
:401AC000704702207047012070470020704700BFE085FF1FD949004080E100E0D8490040D7490040164B1B7813F0040F23D04000C0B229B140F001004922124B1A7002E013
:401B00004522104B1A70104B1870122201331A700422023B1A700D4B1B7813F0010FFAD00A4B1B7803F00A030A2B06D11022054B1A7003207047022070470020704700BF86
:401B4000D9490040E085FF1FD8490040D74900400A4B1B7813F0040F0ED01023074A13700421023A1170064A1370064B1B7813F0210FFAD00020704702207047D949004034
:401B8000E085FF1FD7490040114B1B7813F0040F1BD0104B18700422013B1A7046220E4B1A700E4B1B7813F0010FFAD00B4B1B7813F0020F04D16022074B1A700020704768
:401BC0006022054B1A70032070470220704700BFD9490040D8490040E085FF1FD7490040114B1B7813F0040F1BD0104B1B78DBB2492B05D100220E4B1A704A220B4B1A706B
:401C00000B4B1B7813F0010FFAD00A4B1B78DBB218B11021064A117004E06021034A117000E0002318467047D9490040E085FF1FD7490040D8490040024B1878C0F300100D
:401C4000704700BF215100400230800803D000BF01380046FCD17047EFF3108072B6704780F31088704700BF2DE9F04F8DB006460F4614461D4600F08FF9DFF81093CDE983
:401C8000000199F90080B8F1FF3F46D022462B462046294601F014FD834600283DD132463B463046394601F00BFD8246002874D1304639460022002301F0D0FC002833D027
:401CC000002200232046294601F0C8FC8346B8B1A94A012300200021CDF828A0CDE90467CDE90645CDE9080103920293B8F1000F6CD0A24B0022104619460DB0BDE8F08F5A
:401D00002046294600F072FF38B1002200232046294601F0ADFC00286AD1DDE90023104619460DB0BDE8F08FDDE9000100F05EFF804600287DD0DDE900014FF0000A4FF050
:401D4000000B52465B4601F089FC0028E5D03046394600F04BFF0028DFD02046294600F045FF0028D9D099F90030834804210022022BCDE90467CDE90645CDE908AB0390CD
:401D800002910A9204D002A800F036FF002847D101F0CCFC2223036042E0002200232046294601F05BFC0028B7D0744B724800220121B8F1020FCDF828B0CDE90467CDE992
:401DC0000645CDE9082303900291A8D002A800F013FF00287ED00A9B43B301F0A7FCDDE908230A990160104619460DB0BDE8F08F614999F900300122CDF828B0CDE90467F0
:401E0000CDE9064503910292002B68D05C490020022BCDE9080166D101F088FC212303600A9B1BB101F082FC0A9B0360DDE9082375E73046394600F0D9FE00283FF47BAF9C
:401E40002046294600F0D2FE00283FF474AFDDE900231046194601F033FC00286FD1464B99F90080039303230A90CDE90467CDE906450293B8F1000F3BD1DFF814B14FF0DA
:401E8000604A0022002330463946CDE908AB01F0EFFB00283FF477AF00223A4B2046294601F074F904460D4600F0AEFE02460B462046294601F0D2FB00283DD1324B4FF048
:401EC0006042CDE9082399F90080B8F1020F7FF45AAF5DE701F02AFC212303607BE700230024CDE9083402A800F086FE002897D192E7DFF8A0B04FF0000A00220023304628
:401F00003946CDE908AB01F0B3FB0028DDD000221C4B2046294601F039F904460D4600F073FE02460B462046294601F097FB18B9134B0022CDE9082399F90080C5E70E4A8D
:401F400099F900900123CDF82880CDE90467CDE9064503920293B9F1000FC0D0002200231046194601F03CFAB9F1020FCDE908013FF452AFB7E700BF244E00000000F03F4C
:401F80000000F0FF0000E03FFFFFEFC7E484FF1FFFFFEF470000F07F2DE9F04F23F0004858EA020993B03CD0714C21F00046A64283460D460CDD06F1404606F5801656EA9B
:401FC0000B0038D183466B49584613B0BDE8F08F9A4696462BD0A045EDDC654CA04578D0002D0F468146CDE9002376DB0024BEF1000F27D15E4B984500F08B805D4B984535
:4020000052D0BAF1804F00F0C9835B4B9A4519D1002D17DB4846394613B0BDE8F04F00F01DBDCB465846534913B0BDE8F08F0028C1D1B045D1DD514813B0BDE8F04F00F0FD
:40204000DDBD00244846394600F0CCFDBBF1000F1CD0ED0F013D54EA050370D0484B984540F3948003F10473984540F30D84454B9E4270DDBAF1000F70DD3BA3D3E9002331
:402080001046194601F082F883469DE726B1394B25F040429A42DCD1BAF1000FC0F2B783002D08DB83468FE7BAF1000FC0F25E84CB46394688E706F1404606F5801656EAA8
:4020C000040300F08384012CECD101F1004183467AE7BEF1000F83D06DE72B4B98452CDCA3F15473984581DD4FEA2853A3F2FF33142B40F35384C3F134032EFA03F202FA7D
:4021000003F39E457FF472AF02F00102C2F102046DE706F1404303F5801353EA0B0300F03A83184B9E4240F36783BAF1000F15DBDDE900349B46214646E7022457E74A46C6
:4021400048463B46394600F06DFE02460B4601F047F9834638E7BAF1000F8EDB4FF0000B594631E7AFF300809C7500883CE4377E0000F07F0000F03F0000E03F944000007F
:402180000000E041FFFFEF3FFFFF3F43B6F5801F4FF0000205DAD04B00F0F8FF0E466FF03402DFF844E33315C6F31306A3F2FF3346F07F57764503EB020A47F4401740F398
:4021C000C983C64B00229E4240F304840023CDE90823CDE90C23C24B0022CDE906230AF1010AA7F5801700263946DDE90623CDE90A0100F017FEDDE9062380468946DDE9F1
:402200000A0100F011FE02460B460020B44901F0E7F80A4601461346CDE90E1202464946404600F0B3FF8C4683467B1043F0005303F5002399190020CDE904BC06460F4699
:402240004FF0000B6146584632463B46CDE910BCCDE9020100F09AFF02460B464046494600F0E0FDDDE90623804689463046394600F0D8FD02460B46DDE90A0100F0D2FD30
:40228000DDE9022300F082FF02460B464046494600F0C8FDDDE90E2300F078FFDDE90478CDE906013A4643463846414600F06EFF77A3D3E9002306460F4600F067FF76A38E
:4022C000D3E9002300F0B0FD32463B4600F05EFF73A3D3E9002300F0A7FD32463B4600F055FF71A3D3E9002300F09EFD32463B4600F04CFF6EA3D3E9002300F095FD3246BA
:402300003B4600F043FF6CA3D3E9002300F08CFD3246804689463B463046394600F036FF02460B464046494600F030FFDDE9022306460F46DDE9040100F076FDDDE9062365
:4023400000F024FF32463B4600F06EFDDDE902678046894632463B463046394600F016FF0022604BCDE90A0100F05EFD42464B4600F05AFDDDE910BC0F46DDE902015A46B6
:402380003B46CDE90EBC5E4600F000FF0022CDE90201544B3046394600F044FDDDE90A2300F040FD02460B464046494600F03AFDDDE9042300F0EAFE324680468946DDE95C
:4023C00006013B4600F0E2FE02460B464046494600F02AFD8046894602460B46DDE9020100F022FDDDE90EBC35A3D3E900235846CDE906BC5E460F4600F0C8FEDDE90223C3
:40240000CDE904013046394600F00CFD02460B464046494600F006FD2BA3D3E9002300F0B5FE2BA3D3E90023804689463046394600F0ACFE02460B464046494600F0F4FCA3
:40244000DDE90C2300F0F0FC80465046894600F037FE06460F46DDE9040142464B4600F0E3FCDDE9082300F0DFFC32463B4600F0DBFCDDE906BC324658463B46DA468B465B
:4024800000F0D0FCDDE9082330E000BFAFF30080EF4E454A287ECA3F65DBC9934A86CD3F01411DA96074D13F4D268F515555D53FFFAB6FDBB66DDB3F033333333333E33F39
:4024C000000000E009C7EE3FFD033ADC09C7EE3FF5015B14E02F3EBE0000404379B60B000000F03F000008408E98030000F09AFCDDE9042300F096FC02460B46404649467C
:4025000000F090FC80468946DDE90012013C54EA050314BFD64CD74C0023CDE904340B461446CDE9023400230293DDE9024508462B461146224600F075FC52465B4600F0A2
:4025400025FEDDE9002306460F464046494600F01DFE02460B463046394600F065FC06460F4622462B4650465946CDE9006700F00DFE0B460246804689463046394600F0D5
:4025800053FCBD4B064699420D460C4640F30E8101F13F4303F5E003034340F0F081A0A3D3E90023DDE9000100F03EFC424682468B464B463046294600F034FC02460B469D
:4025C0005046594601F072F8002840F0D8812F463B154FF48012A3F2FE3342FA03F32344C3F30A52A54EA2F2FF321641C3F3130B0020C2F1140523EA06014BF4801B02468A
:402600000B46002C4BFA05FB40464946B8BFCBF1000B00F007FC02460B4680468946DDE9000100F001FC4FEA0B5A00247EA3D3E9002320460D4600F0A9FD424606460F4676
:402640004B462046294600F0EDFB02460B46DDE9000100F0E7FB76A3D3E9002300F096FD75A3D3E90023804689462046294600F08DFD02460B464046494600F0D5FB804660
:40268000894602460B463046394600F0CDFB32463B4604460D4600F0C5FB02460B464046494600F0BFFB2246804689462B462046294600F06BFD62A3D3E9002306460F4647
:4026C00000F064FD60A3D3E9002300F0ABFB32463B4600F05BFD5EA3D3E9002300F0A4FB32463B4600F052FD5BA3D3E9002300F099FB32463B4600F049FD59A3D3E90023BE
:4027000000F092FB32463B4600F040FD02460B462046294600F086FB06460F4602460B462046294600F032FD0022CDE900014FF080433046394600F075FB02460B46DDE95A
:40274000000100F04DFE424606460F464B462046294600F01BFD42464B4600F065FB02460B463046394600F05DFB22462B4600F059FB02460B4600203D4900F053FB8A44DF
:40278000BAF5801FC0F237815146DDE9042300F0FDFC834618E4F346354915E44A4648463B46394600F0F2FC83460DE4344B21F000479F4240F30181324B0B4403430CD16D
:4027C00042464B4600F02EFB02460B46DDE9000100F058FF00283FF4FBAE23A3D3E90023DDE9040100F0D2FC1FA3D3E9002300F0CDFC8346FFF7E8BBBAF1000FBFF6AEAC49
:40280000DDE900349B4604F10041FFF7DDBB02460B460020164900F0E3FD41E4AFF30080FE822B654715973C00000000432EE63FEF39FAFE422EE63F396CA80C615C20BE4C
:40284000D0A4BE726937663EF16BD2C541BDBB3E2CDE25AF6A56113F93BDBE166CC1663F3E5555555555C53F59F3F8C21F6EA5010000F03F0000F0BFFFFF8F40FFFF0F00C6
:40288000FFCB904000346F3F6F4B9E427FF763AC6E4B9E423FF7EEAB00226C4B00F0C2FA5BA3D3E9002306460F4600F06FFC5AA3D3E90023804689463046394600F066FCFF
:4028C000002282468B46624B3046394600F05EFC02460B4652A1D1E9000100F0A3FA32463B4600F053FC02460B460020594900F099FA3246CDE902013B463046394600F0B0
:4029000045FC02460B46DDE9020100F03FFC46A3D3E9002300F03AFC02460B465046594600F080FA02460B4606460F464046494600F07AFA42464B46002082468B4600F02E
:4029400071FA02460B463046394600F06BFA80468946D9E500220023CDE90823CDE90C233A4B00220026CDE906233DE44A463B460020364900F034FD8346FFF725BB2CA39F
:40298000D3E90023DDE9040100F000FC28A3D3E9002300F0FBFB8346FFF716BBBEF1000F7FF44FABC3F1140348FA03F202FA03F3984524D07446FFF721BB264B9F423FF75D
:4029C00007AEDDE902349A469B462EE602460B46FFF7B9BB204B4FF48026CDE9062316A3D3E90023CDE9082315A3D3E90023CDE90C23FFF7F9BB5A4600F096F9C5E602F0C0
:402A00000102C2F10204FFF7F9BA00BFAFF30080000000604715F73F44DF5DF80BAE543E555555555555D53FFE822B654715F73F9C7500883CE4377E0000004003B8E23F5D
:402A400006D0CF43EBFD4C3EFEFFEF3F0000F03F0000D03F0000E03F0000F83F2DE9F0415F4E0C46B6460E407645054600F0988000290B46024674DD5FEA215E7FD0AEF2D5
:402A8000FF3EC3F313031EF0010F43F4801363D100273E4603EBD2710B444FEA6E0E520016204FF4001174189C424FEAD2754FEA420202DC1B1B66180F44013805EB43037A
:402AC0004FEA5101EFD1844620244FF0004109E020D003EBD275013C4FEA51012B444FEA420220D09E4201EB0C05F1DA002D05EB010C09DBB0469542A3EB060300D9013B1C
:402B00004646521B0844E4E7BCF1000FF2DB06F10108F0E7954217D8002D05EB010C49DB98460023ECE7134310D140087B1003F17F5303F50013FA0703EB0E57394648BF88
:402B400040F00040BDE8F0813346C2E7411C35D000F001031844E8E75B0003EBD273520096E721F000460643ECD079BB8E46D30AAEF1150E5205002BF9D0DD0221D400218C
:402B800000E001465B00DC0201F10100F9D5C0F1200422FA04F42343C1EB0E0E82406EE702460B4600F0F2FA2A46234600F03CF9BDE8F081BCF1000FA9DAB1E701372046C8
:402BC000B4E720244FF0FF310020E2E702460B4600F028F902460B4600F002FCB2E700BF0000F07F21F00041704700BF41F0004101F58010C00F704700207047002001491F
:402C0000704700BF0000F87FF0B5C1F30A5EAEF2FF36132E83B002460B460C464FEAD17507462EDC002E49DB3D49314103EA010010432BD049080B4053EA02070CD04FF455
:402C40008023132E24EA010143FA06F444EA01040CBF4FF000470027324B214603EBC505D5E90045384622462B4600F0DDF8CDE90001DDE9000122462B4600F0D3F803B0FE
:402C8000F0BD332E06DDB6F5806F45D01046194603B0F0BDAEF2134E4FF0FF3121FA0EF10842F3D049080842D6D04FF0804320EA010143FA0EFE4EEA0107CDE721F00041EA
:402CC00001431946E4D0C3F3130343EA000CCCF1000343EA0C0C134B640C4FEA1C3C0CF4002C03EBC5036404D3E900674CEA040132463B4600F098F8CDE90001DDE9000175
:402D000032463B4600F08EF8024621F0004141EAC57310461946BBE700F086F8B8E700BFFFFF0F00284E0000F8B5C1F30A5604460D460B46174606BB21F00043034325D025
:402D400000222F4B00F022FA2E4A044697420D460B462ADBC1F30A56363E40F2FE723E44964228DC002E12DD23F0FF4323F4E00343EA065520462946F8BD40F2FF729642E6
:402D8000EBD102460B4600F04FF8F8BDF8BD16F1350F1DDA4CF250339F420CDC14A1D1E9000122462B4600F031F811A3D3E9002300F0ECF9F8BD22460FA1D1E900012B468E
:402DC00000F024F80CA3D3E9002300F0DFF9F8BD23F0FF4323F4E003363643EA0655204629460022084B00F0D1F9F8BDAFF3008059F3F8C21F6EA5019C7500883CE4377EF7
:402E000000005043B03CFFFF0000903C03F0004321F0004242EA0301704700BF81F0004102E000BF83F0004330B54FEA41044FEA430594EA050F08BF90EA020F1FBF54EA2D
:402E4000000C55EA020C7FEA645C7FEA655C00F0E2804FEA5454D4EB5555B8BF6D420CDD2C4480EA020281EA030382EA000083EA010180EA020281EA0303362D88BF30BD5B
:402E800011F0004F4FEA01314FF4801C4CEA113102D0404261EB410113F0004F4FEA03334CEA133302D0524263EB430394EA050F00F0A780A4F10104D5F1200E0DDB02FACC
:402EC0000EFC22FA05F2801841F1000103FA0EF2801843FA05F359410EE0A5F120050EF1200E012A03FA0EFC28BF4CF0020C43FA05F3C01851EBE37101F0004507D54FF05F
:402F0000000EDCF1000C7EEB00006EEB0101B1F5801F1BD3B1F5001F0CD349085FEA30004FEA3C0C04F101044FEA445212F5800F80F09A80BCF1004F08BF5FEA500C50F132
:402F4000000041EB045141EA050130BD5FEA4C0C404141EB010111F4801FA4F10104E9D191F0000F04BF01460020B1FA81F308BF2033A3F10B03B3F120020CDA0C3208DD06
:402F800002F1140CC2F10C0201FA0CF021FA02F10CE002F11402D8BFC2F1200C01FA02F120FA0CFCDCBF41EA0C019040E41AA2BF01EB0451294330BD6FEA04041F3C1CDA6F
:402FC0000C340EDC04F11404C4F1200220FA04F001FA02F340EA030021FA04F345EA030130BDC4F10C04C4F1200220FA02F001FA04F340EA0300294630BD21FA04F02946C5
:4030000030BD94F0000F83F4801306BF81F480110134013D4EE77FEA645C18BF7FEA655C29D094EA050F08BF90EA020F05D054EA000C04BF1946104630BD91EA030F1EBF9E
:403040000021002030BD5FEA545C05D14000494128BF41F0004130BD14F580043CBF01F5801130BD01F0004545F0FE4141F470014FF0000030BD7FEA645C1ABF1946104614
:403080007FEA655C1CBF0B46024650EA013406BF52EA033591EA030F41F4002130BD00BF90F0000F04BF0021704730B54FF4806404F132044FF000054FF0000150E700BF60
:4030C00090F0000F04BF0021704730B54FF4806404F1320410F0004548BF40424FF000013EE700BF42004FEAE2014FEA31014FEA02701FBF12F07F4393F07F4F81F06051F4
:40310000704792F0000F14BF93F07F4F704730B54FF4607401F0004521F0004120E700BF50EA010208BF704730B54FF000050AE050EA010208BF704730B511F0004502D597
:40314000404261EB41014FF4806404F132045FEA915C3FF4DCAE4FF003025FEADC0C18BF03325FEADC0C18BF033202EBDC02C2F1200300FA03FC20FA02F001FA03FE40EA70
:403180000E0021FA02F11444C1E600BF70B54FF0FF0C4CF4E06C1CEA11541DBF1CEA135594EA0C0F95EA0C0F00F0DEF82C4481EA030621EA4C5123EA4C5350EA013518BF0D
:4031C00052EA033541F4801143F4801338D0A0FB02CE4FF00005E1FB02E506F00042E0FB03E54FF00006E1FB03569CF0000F18BF4EF0010EA4F1FF04B6F5007F64F540744E
:4032000004D25FEA4E0E6D4146EB060642EAC62141EA55514FEAC52040EA5E504FEACE2EB4F1FD0C88BFBCF5E06F1ED8BEF1004F08BF5FEA500E50F1000041EB045170BDD3
:4032400006F0004646EA010140EA020081EA0301B4EB5C04C2BFD4EB0C0541EA045170BD41F480114FF0000E013C00F3AB8014F1360FDEBF002001F0004170BDC4F10004BB
:40328000203C35DA0C341BDC04F11404C4F1200500FA05F320FA04F001FA05F240EA020001F0004221F0004110EBD37021FA04F642EB06015EEA430E08BF20EAD37070BD81
:4032C000C4F10C04C4F1200500FA04F320FA05F001FA04F240EA020001F0004110EBD37041F100015EEA430E08BF20EAD37070BDC4F1200500FA05F24EEA020E20FA04F371
:4033000001FA05F243EA020321FA04F001F0004121FA04F220EA020000EBD3705EEA430E08BF20EAD37070BD94F0000F0FD101F00046400041EB010111F4801F08BF013C43
:40334000F7D041EA060195F0000F18BF704703F00046520043EB030313F4801F08BF013DF7D043EA0603704794EA0C0F0CEA135518BF95EA0C0F0CD050EA410618BF52EA3C
:403380004306D1D181EA030101F000414FF0000070BD50EA410606BF1046194652EA430619D094EA0C0F02D150EA013613D195EA0C0F05D152EA03361CBF104619460AD19B
:4033C00081EA030101F0004141F0FE4141F470014FF0000070BD41F0FE4141F4780170BD70B54FF0FF0C4CF4E06C1CEA11541DBF1CEA135594EA0C0F95EA0C0F00F0A7F8ED
:40340000A4EB050481EA030E52EA03354FEA013100F088804FEA03334FF0805545EA131343EA12634FEA022245EA111545EA10654FEA00260EF000419D4208BF964244F180
:40344000FD0404F5407402D25B084FEA3202B61A65EB03055B084FEA32024FF480104FF4002CB6EB020E75EB030E22BFB61A754640EA0C005B084FEA3202B6EB020E75EB1B
:40348000030E22BFB61A754640EA5C005B084FEA3202B6EB020E75EB030E22BFB61A754640EA9C005B084FEA3202B6EB020E75EB030E22BFB61A754640EADC0055EA060E2E
:4034C00018D04FEA051545EA16754FEA06164FEAC30343EA52734FEAC2025FEA1C1CC0D111F4801F0BD141EA00014FF000004FF0004CB6E711F4801F04BF01430020B4F1FF
:40350000FD0C88BFBCF5E06F3FF6AFAEB5EB030C04BFB6EB020C5FEA500C50F1000041EB045170BD0EF0004E4EEA113114EB5C04C2BFD4EB0C0541EA045170BD41F480110B
:403540004FF0000E013C90E645EA060E8DE60CEA135594EA0C0F08BF95EA0C0F3FF43BAF94EA0C0F0AD150EA01347FF434AF95EA0C0F7FF425AF104619462CE795EA0C0FA4
:4035800006D152EA03353FF4FDAE1046194622E750EA410618BF52EA43067FF4C5AE50EA41047FF40DAF52EA43057FF4EBAE12E74FF0FF3C06E000BF4FF0010C02E000BF1E
:4035C0004FF0010C4DF804CD4FEA410C7FEA6C5C4FEA430C18BF7FEA6C5C1BD001B050EA410C0CBF52EA430C91EA030F02BF90EA020F0020704710F1000F91EA030F58BF45
:40360000994208BF90422CBFD8176FEAE37040F0010070474FEA410C7FEA6C5C02D150EA013C07D14FEA430C7FEA6C5CD6D152EA033CD3D05DF8040B704700BF8446104657
:4036400062468C461946634600E000BF01B5FFF7B7FF002848BF10F1000F01BD4DF808EDFFF7F4FF0CBF012000205DF808FB00BF4DF808EDFFF7EAFF34BF012000205DF8E2
:4036800008FB00BF4DF808EDFFF7E0FF94BF012000205DF808FB00BF4DF808EDFFF7CEFF94BF012000205DF808FB00BF4DF808EDFFF7C4FF34BF012000205DF808FB00BFA8
:4036C0004FEA410C7FEA6C5C02D150EA013C0AD14FEA430C7FEA6C5C02D152EA033C02D14FF0000070474FF0010070474A0011D212F5001211D20DD56FF47873B3EB62527C
:403700000ED44FEAC12343F0004343EA505323FA02F070474FF00000704750EA013002D14FF0FF3070474FF000007047014B1868704700BF4885FF1F0E4B70B51E460E4CC6
:403740000025E41AA410A54204D056F8253098470135F8E701F08CFB084B094C1E46E41AA4100025A54204D056F8253098470135F8E770BD7C4E00007C4E00007C4E0000E8
:40378000844E000010B5431E0A44914204D011F8014B03F8014FF8E710BD03460244934202D003F8011BFAE7704700000CB430B5164B0C1E9DB01D6804DA8B232B604FF093
:4037C000FF301EE04FF40273ADF814300CBF234604F1FF33049307934FF6FF7302900690ADF81630209A21AB02A92846019300F095F8431CBCBF8B232B6014B1029B00225E
:403800001A701DB0BDE8304002B070474885FF1F0EB400B54FF402719CB0ADF814106FF00041049107914FF6FF711DAB02900690084853F8042BADF81610006802A90193D8
:4038400000F06CF8029B00221A701CB05DF804EB03B070474885FF1F034613F8012B002AFBD1181A013870472DE9F0478E6882469E420C46914698463ED88A8912F4906F8E
:403880003AD02568096902236F1A656905EB450595FBF3F57B1C43449D4238BF1D4653050FD5294600F040FB064698B13A462169FFF768FFA38923F4906343F08003A38198
:4038C00013E02A4600F08EFB064670B92169504600F0DEFA0C23CAF80030A3894FF0FF3043F04003A381BDE8F08726613E44266046466561ED1BA560464528BF46464946A3
:403900003246206800F0A8FAA36800209B1BA36023681E442660BDE8F08700002DE9F04F9DB003938B8980461C060D4616460DD50B695BB9402100F0F7FA2860286118B911
:403940000C23C8F80030CDE040236B610023099320238DF82930DFF89CB130238DF82A3037463C4614F8013B1BB9B7EB060910D003E0252BF9D02746F3E74B4632462946AF
:403980004046FFF771FF013000F0A780099B4B4409933B78002B00F0A08000234FF0FF3204930793059206938DF853301A930126052221784E4800F041FA671C049B38B1BA
:4039C0004B4A3C46801A06FA00F018430490EFE7D90644BF20228DF853201A0744BF2B228DF8532022782A2A03D0079A00210A200BE0039A111D12680391002A10DA5242C3
:403A000043F00200079204900BE027463B780134303B092B03D800FB02320121F5E701B107923B782E2B1ED17B782A2B0AD1039B02371A1D1B680392002BB8BF4FF0FF339B
:403A4000059310E0002319460593781C0A2407463A780130303A092A03D804FB01210123F5E703B1059103223978224800F0E6F940B14023CBEB000003FA00F0049B0137F2
:403A800018430490397806221B487E1C8DF8281000F0D4F988B1194B33B9039B073323F007030833039314E003AB00932A46144B04A94046AFF3008007E003AB00932A4687
:403AC0000F4B04A9404600F093F8B0F1FF3F824603D0099B5344099342E7AB895B0601D4099801E04FF0FF301DB0BDE8F08F00BF3A4E0000404E0000444E00000000000092
:403B0000693800002DE9F04791461F460A698B6806469342B8BF1346C9F8003091F843200C46DDF8208012B10133C9F800302368990642BFD9F800300233C9F80030256899
:403B400015F0060510D104F1190A07E00123524639463046C04701301AD00135E368D9F800209B1A9D42F1DB94F843302268003318BF012392060FD5E118302081F8430078
:403B80005A1C94F845102244023382F8431003E04FF0FF30BDE8F08704F1430239463046C0470130F4D02268D9F80050E36802F00602042A08BF5D1B2269A3680CBF25EAE1
:403BC000E57500259342C4BF9B1AED184FF000091A344D4509D00123224639463046C0470130D5D009F10109F3E70020BDE8F0872DE9F04317460A7E85B06E2A9846064696
:403C00000C460C9B01F1430E00F0AE8011D8632A22D009D8002A00F0BB80582A40F0CA8081F84520834955E0642A1ED0692A1CD0C0E0732A00F0B08009D86F2A2ED0702A47
:403C400040F0B8800A6842F020020A603EE0752A24D0782A3AD0ADE01A6801F14205111D1960136884F84230A8E021681A6811F0800F02D0111D196008E011F0400F02F130
:403C80000401196002D0B2F9003000E01368002B3CDA2D225B4284F8432037E021681A6811F0800F02D0111D196007E011F0400F02F10401196001D0138800E01368227E38
:403CC0005C496F2A14BF0A2208221BE078225A4984F845202268186812F0800F00F104051D6003D1550601D5038800E00368D00744BF42F0200222601BB9226822F0200215
:403D000022601022002084F8430001E049490A226568002DA56008DB206820F0040020602BB9002D7DD175460CE0002B79D07546B3FBF2F002FB1033CB5C05F8013D0346A3
:403D40000028F5D1082A0BD12368DA0708D5236962689A42DEBF302305F8013C05F1FF35C5EB0E0323612EE008681A6810F0800F496903D0101D1860136808E010F0400FC8
:403D800002F104001860136801D0198000E0196000232361754616E01A68111D1960156800216268284600F049F808B1401B6060636804E004F1420584F842200123236189
:403DC000002384F84330CDF800803B4603AA21463046FFF797FE013002D14FF0FF3026E023692A4639463046C0470130F5D023689B0710D5002504F1190907E001234A4687
:403E000039463046C0470130E7D00135E368039A9B1A9D42F2DBE068039B9842B8BF184605E00B7804F1420584F842308AE705B0BDE8F0834B4E00005C4E000010B5C9B237
:403E400002449042034605D01C7801308C42F8D1184610BD002010BD884210B501EB020301D8421E0BE09842FBD28118D21AD34204D013F8014D01F8014DF8E710BD9942B8
:403E800004D011F8014B02F8014FF8E710BD000038B50546002944D051F8043C0C1F002BB8BFE41800F0D4F81E4A1368114613B96360146030E0A3420DD92268A018834241
:403EC00001BF18685B681218226063600C6023E0A24203D813465A68002AF9D118681918A1420BD12168014458188242196013D110685268014419605A600DE002D90C23A3
:403F00002B6009E021686018824201BF106852680918216062605C602846BDE8384000F098B838BDB885FF1F70B5CD1C25F0030508350C2D38BF0C25002D064601DBA94212
:403F400002D90C23336046E000F082F8234B1C681A462146A1B10B685B1B0ED40B2B03D90B60CC18CD501EE08C420BBF63684B681360636018BF0C4615E00C464968E9E785
:403F8000174C23681BB9304600F052F820602946304600F04DF8431C18D0C41C24F00304A0420DD12560304600F053F804F10B00231D20F00700C31A0ED05A42E25070BDB0
:403FC000211A304600F034F80130EBD10C233360304600F03EF8002070BD00BFB885FF1FB485FF1FF8B5074615460E4621B91146BDE8F840FFF798BF1AB9FFF749FF284668
:40400000F8BD00F027F885420ED929463846FFF78BFF044650B131462A46FFF7B3FB31463846FFF735FF01E03046F8BD2046F8BD38B5064C0023054608462360FDF732FAE7
:40404000431C02D1236803B12B6038BDF885FF1F7047704751F8040C0028BEBF091851F8043CC0180438704700000000000000000D0A2A2A2A2A2A2A2A2A2A2A2A2A2A2A70
:404080000D0A00002A2A20493243205363616E202A2A0D0A000000002A2A2A2A2A2A2A2A2A2A2A2A2A2A0D0A000000000A0A20202000000025303258200000000A25303220
:4040C000582000002D2D20000A0A00005365636F6E64693A2025640D0A0000004D696E7574693A2025640D0A000000004F72653A2025640D0A00000047696F726E6F3A20A3
:4041000025640D0A000000004D6573653A2025640D0A0000416E6E6F3A2025640D0A0A0025642D25642D256420253032643A253032643A253032640A0000000025640A00E4
:4041400000AED580A83FD300408D142000A1C8DA12817FD9F1DB40A4A6AF00000021007F2200070000000000003E5B4F5B3E3E6B4F6B3E1C3E7C3E1C183C7E3C181C577D1D
:40418000571C1C5E7F5E1C00183C1800FFE7C3E7FF0018241800FFE7DBE7FF30483A060E2629792926407F050507407F05253F5A3CE73C5A7F3E1C1C08081C1C3E7F14220B
:4041C0007F22145F5F005F5F06097F017F006689956A606060606094A2FFA29408047E040810207E201008082A1C08081C2A08081E101010100C1E0C1E0C30383E38300645
:404200000E3E0E06000000000000005F00000007000700147F147F14242A7F2A12231308646236495620500008070300001C2241000041221C002A1C7F1C2A08083E0808AC
:4042400000807030000808080808000060600020100804023E5149453E00427F400072494949462141494D331814127F1027454545393C4A49493141211109073649494905
:4042800036464949291E0000140000004034000000081422411414141414004122140802015909063E415D594E7C1211127C7F494949363E414141227F4141413E7F494960
:4042C00049417F090909013E414151737F0808087F00417F41002040413F017F081422417F404040407F021C027F7F0408107F3E4141413E7F090909063E4151215E7F09B2
:40430000192946264949493203017F01033F4040403F1F2040201F3F4038403F631408146303047804036159494D43007F4141410204081020004141417F040201020440EB
:4043400040404040000307080020545478407F284444383844444428384444287F385454541800087E090218A4A49C787F0804047800447D40002040403D007F1028440080
:4043800000417F40007C047804787C080404783844444438FC1824241818242418FC7C08040408485454542404043F44243C4040207C1C2040201C3C4030403C44281028DA
:4043C000444C9090907C4464544C4400083641000000770000004136080002010204023C2623263C1EA1A161123A4040207A38545455592155557941225454784221555486
:40440000784020545579400C1E5272123955555559395454545939555454580000457C410002457D420001457C407D1211127DF0282528F07C545545002054547C547C0A7F
:40444000097F4932494949323A4444443A324A4848303A4141217A3A42402078009DA0A07D3D4242423D3D4040403D3C24FF2424487E4943662B2FFC2F2BFF0929F620C01B
:40448000887E090320545479410000447D413048484A32384040227A007A0A0A727D0D19317D2629292F28262929292630484D4020380808080808080808382F10C8ACBAAD
:4044C0002F102834FA00007B000008142A142222142A1408AA005500AAAA55AA55AA000000FF00101010FF00141414FF001010FF00FF1010F010F0141414FC001414F70075
:40450000FF0000FF00FF1414F404FC141417101F10101F101F1414141F00101010F0000000001F101010101F10101010F010000000FF101010101010101010FF10000000AF
:40454000FF140000FF00FF00001F10170000FC04F414141710171414F404F40000FF00F714141414141414F700F7141414171410101F101F141414F4141010F010F00000DD
:404580001F101F0000001F14000000FC140000F010F01010FF10FF141414FF141010101F00000000F010FFFFFFFFFFF0F0F0F0F0FFFFFF0000000000FFFF0F0F0F0F0F3885
:4045C00044443844FC4A4A4A347E02020606027E027E0263554941633844443C04407E201E2006027E020299A5E7A5991C2A492A1C4C7201724C304A4D4D3030487848306D
:40460000BC625A463D3E494949007E0101017E2A2A2A2A2A44445F444440514A444040444A51400000FF0103E080FF000008086B6B083612362436060F090F0600001818DD
:404640000000001010003040FF0101001F01011E00191D1712003C3C3C3C000000000000000000000000000BA0000000000000000000000000000017AA00000000000000AF
:4046800000000000000001400380000000000000000000000000060000500000000000000000000000000C0000300000000000000000000000001800001C00000000000070
:4046C000000000000000600000040000000000000000000000004008000300000000000000000000000086804401000000000000000000000001100CCC0080000000000057
:404700000000000000030007F400C00000000000000000000002406148002000000000000000000000040023C4B8200000000000000000000000002080002000000000002D
:4047400000000000000C84820F802000000000000000000000008008D180100000000000000000000008800081600000000000000000000000018201011018000000000079
:4047800000000000000900895C2100000000000000000000001901508000180000000000000000000001028004C0000000000000000000000001000D0080180000000000FB
:4047C00000000000000000800000180000000000000000000018000009100000000000000000000000001009C001100000000000000000000008006842410800000000000B
:4048000000000000000000AA050110000000000000000000000C1A9A01082000000000000000000000000040040020000000000000000000000400E04840400000000000BF
:404840000000000000020800614420000000000000000000000101007900400000000000000000000001010210000000000000000000000000008020C001800000000000B9
:40488000000000000000400000010000000000000000000000002000000600000000000000000000000010000004000000000000000000000000080000380000000000003D
:4048C00000000000000006000090000000000000000000000000014001C000000000000000000000000000BAAA00000000000000000000000000000AA00000000000000012
:404900000000000000000000000000000000000000000000000000000000000000000000000003C0F0813F3E0E20CC3C1E000000000003F3F8813F3E3FB0CC7F3F8000008D
:40494000000003330C810C207138CCE071800000000003360C810C30603CCCC060C00000000003F606810C3E6036CCC040C00000000003E604810C3C6033CCC060C00000D7
:40498000000003060C810C206031CCC060C00000000003039CC10C303930CC663380000000000301F8F90C3E1F304C3E1F00000000000000000000000400000004000000CC
:4049C00000000000000000000000000000000000000000000000000000000000000000000000000000000000000000000000000000000000000000000000000000000000B7
:404A000000000000044902227C11C4F000000000000000000449063242124810000000000000000006E9052A4211DE7000000000000000000BA90D26421352100000000036
:404A40000000000009290FA64612501000000000000000000929F0A23C39CE7000000000474C55434F4D45544552000050726573732074686520627574746F6E00000000FF
:404A8000746F20535441525400000000746865206D6561737572656D656E74004572726F7220696E2073657474696E672074686520525443207365636F6E647300000000C6
:404AC0004572726F7220696E2073657474696E672074686520525443206D696E75746573000000004572726F7220696E2073657474696E67207468652052544320686F7513
:404B0000727300004572726F7220696E2073657474696E67207468652052544320646174650000004572726F7220696E2073657474696E672074686520525443206D6F6E56
:404B4000746800004572726F7220696E2073657474696E67207468652052544320796561720000004572726F7220696E2073657474696E67207468652052544320636F6E16
:404B800074726F6C2072656769737465720000004572726F7220696E2072656164696E672074686520525443207365636F6E6473000000004572726F7220696E20726561E2
:404BC00064696E672074686520525443206D696E75746573000000004572726F7220696E2072656164696E67207468652052544320686F75727300004572726F7220696ECD
:404C00002072656164696E67207468652052544320646174650000004572726F7220696E2072656164696E672074686520525443206D6F6E746800004572726F7220696EA6
:404C40002072656164696E67207468652052544320796561720000000A4572726F7220696E20736176696E67207365636F6E647320696E20454550524F4D206D656D6F721E
:404C8000790D0A000A4572726F7220696E20736176696E67206D696E7574657320696E20454550524F4D206D656D6F72790D0A000A4572726F7220696E20736176696E672A
:404CC00020686F75727320696E20454550524F4D206D656D6F72790D0A0000000A4572726F7220696E20736176696E67206461746520696E20454550524F4D206D656D6F96
:404D000072790D0A000000000A4572726F7220696E20736176696E67206D6F6E746820696E20454550524F4D206D656D6F72790D0A0000000A4572726F7220696E207361CA
:404D400076696E67207965617220696E20454550524F4D206D656D6F72790D0A000000000A4572726F7220696E20736176696E6720676C75636F7365206461746120696E89
:404D800020454550524F4D206D656D6F72790D0A000000000A4572726F7220696E2072656164696E6720646174612066726F6D20454550524F4D206D656D6F72790D0A00F0
:404DC0000A46726F6D206D656D6F72793A2025640D0A0A00C84900401900005100401000305100404000F05100401000000001400010001401400004801801408003004075
:404E00000140000A004C0140000200500140200060520040D8020048060000180140E00200488000706F7700000000000000304300000000000030C34300232D302B200000
:404E4000686C4C006566674546470030313233343536373839414243444546003031323334353637383961626364656600000000F8B500BFF8BC08BC9E4670474D0000003E
:404E800021150000F8B500BFF8BC08BC9E46704729000000A84E0000C880FF1F88040000B0000000000000000000000040000000000000000000000000000000000000003C
:404EC00000000000000000000000000000000000000000000000000000000000000000000000000000000000000000000000000000000000000000000000000000000000B2
:404F00000000000000000000000000000000000000000000000000000000000000000000000000000000000000000000000000000000000000000000000000000000000071
:404F40000000000000000000000000000000000000000000000000000000000000000000000000000000000000000000000000000000000000000000000000000000000031
:404F800000000000000000000000000000000000000000000000000000000000000000000000000000000000000000000000000000000000000000000000000000000000F1
:404FC00000000000000000000000000000000000000000000000000000000000000000000000000000000000000000000000000000000000000000000000000000000000B1
:405000000000000000000000000000000000000000000000000000000000000000000000000000000000000000000000000000000000000000000000000000000000000070
:405040000000000000000000000000000000000000000000000000000000000000000000000000000000000000000000000000000000000000000000000000000000000030
:4050800000000000000000000000000000000000000000000000000000000000000000000000000000000000000000000000000000000000000000000000000000000000F0
:4050C00000000000000000000000000000000000000000000000000000000000000000000000000000000000000000000000000000000000000000000000000000000000B0
:40510000000000000000000000000000000000000000000000000000000000000000000000000000000000000000000000000000000000000000000000000000000000006F
:40514000000000000000000000000000000000000000000000000000000000000000000000000000000000000000000000000000000000000000000000000000000000002F
:4051800000000000000000000000000000000000000000000000000000000000000000000000000000000000000000000000000000000000000000000000000000000000EF
:4051C00000000000000000000000000000000000000000000000000000000000000000000000000000000000000000000000000000000000000000000000000000000000AF
:40520000000000000000000000000000000000000000000000000000000000000000000000000000000000000000000000000000000000000000000000000000000000006E
:40524000000000000000000000000000000000000000000000000000000000000000000000000000000000000000000000000000000000000000000000000000000000002E
:405280000000000000000000000000000000000000000000000000000000000000000000000000000000000000000000000000000086FF1F0000E02EC05D00001800000007
:4052C00000366E01010000000000000000000000000000000000000000000000000000000000000000000000384E0000000000000000000000000000000000000000000082
:4053000000000000000000000000000000000000000000000000000000000000000000000000000000000000E884FF1F0000000000000000000000000000000000000000E3
:40534000000000000000000000000000000000000000000000000000000000000000000000000000000000000000000000000000000000000000000000000000000000002D
:4053800000000000000000000000000000000000000000000000000000000000000000000000000000000000000000000000000000000000000000000000000000000000ED
:4053C00000000000000000000000000000000000000000000000000000000000000000000000000000000000000000000000000000000000000000000000000000000000AD
:40540000000000000000000000000000000000000000000000000000000000000000000000000000000000000000000000000000000000000000000000000000000000006C
:020000040003F7
:0200000480007A
:40000000036500400315014002170140141801403F190140701A0140521B01400242014001430140054801400F4901400A4C01400C4D0140025001400151014088728938A3
:400040008B0FE008E401EA01E204E60886048A0292049A02A401A801A901AC01B002B204B501B601BB02BE05BF10D418D804D904DB04DF01001003200480050C068007048C
:4000800009010B040D200E6110221110154617281A011B451C041D0D1E421F08210322102340241025012628270429202DC82E012F04350137143D043E203F40450A4740B1
:4000C0004E0A4F8457205B015E02630A6C226D107580762077288210C0F6C2FAC4F7CAF4CCE0CE70D0D0D230D681D80CE204E404E60800100240041006AC09800A030B1334
:400100000C0C0E71130C1414152C17431C091ED01F082171230E25712620270628DC2A2230E031C0330F341F353039223A023B083F104002454049FF4A074BFF4C404D2029
:400140004EF04F055008580459045A045F01604061A862406320801381118204836884138503860C8704888089308A208C408D038E20902092C09303940A952296149718C3
:4001800098E09B039C039E14A208A530A615A8E0A903AF03B010B10CB20FB340B4E0B530B703BA08BE01BF01C023C101C50BC60EC7C0C825C9FFCAFFCBFFCEF0CF44D00C4E
:4001C000D401D804D904DA04DB04DF01E6C0EA40EB020122020103200505060207080A220C200D4A0F02121013201512161019211C401D041E04211922012320252027590D
:40020000280229052A852B202C202E402F083080310832013622370838203D103E063F4041104615488049024E1050105210568057015C465E108140821089028A168B0436
:400240008C408D029004911092409340948097089D209E809F51A020A222A308A520A610C0FFC2F5C476CA73CCEBCEF4D074D6F0E008E401EA013E10CE20961082208508E8
:400280009610E220E61012201640722075088220864099089A20AA10C430DC80DE20E010E480EA801080132014407B107F40808081028440C40EDE03104075028310874004
:4002C000884097809902A710AB20C408DE04E20110011C0103C0000082800000400000004000000033080C001C182300037F00001F1C2061013C004202000004000023007A
:400300003F000023046700180C040000081000002C400F38401F100000020A200000500035040600010CE00009FFFFFF62A0F0410C0000000000021304040404000000017B
:4003400000000000000040020010301000101012000000000000000000000000000000008000408083008300000000000400000F0B00000000000000100000100000000035
:40038000000000000000000000000000000000000000000000000000000000000000000000000000000000000000000000000000000000000000000000000000000000003D
:4003C00000000000000000000000000000000000000000000000000000000000000000000000000000000000000000000000000000000000000000000000000000000000FD
:4004000000000000000000000000000000000000000000000000000000000000000000000000000000000000000000000000000000000000000000000000000000000000BC
:40044000000000000000000000000000000000000000000000000000000000000000000000000000000000000000000000000000000000000000000000000000000000007C
:0200000490006A
:0400000000004005B7
:0200000490105A
:04000000BC90ACAF55
:0200000490303A
:02000000BB66DD
:0200000490402A
:4000000000000000000000000000000000000000000000000000000000000000000000000000000000000000000000000000000000000000000000000000000000000000C0
:400040000000000000000000000000000000000000000000000000000000000000000000000000000000000000000000000000000000000000000000000000000000000080
:400080000000000000000000000000000000000000000000000000000000000000000000000000000000000000000000000000000000000000000000000000000000000040
:4000C0000000000000000000000000000000000000000000000000000000000000000000000000000000000000000000000000000000000000000000000000000000000000
:0200000490501A
:0C00000000012E16106900012E33CBCF3A
:00000001FF